{
  "_format": "hh-sol-artifact-1",
  "contractName": "NFT",
  "sourceName": "contracts/NFT.sol",
  "abi": [
    {
      "inputs": [
        {
          "internalType": "address",
          "name": "_marketplaceAddress",
          "type": "address"
        }
      ],
      "stateMutability": "nonpayable",
      "type": "constructor"
    },
    {
      "anonymous": false,
      "inputs": [
        {
          "indexed": true,
          "internalType": "address",
          "name": "owner",
          "type": "address"
        },
        {
          "indexed": true,
          "internalType": "address",
          "name": "approved",
          "type": "address"
        },
        {
          "indexed": true,
          "internalType": "uint256",
          "name": "tokenId",
          "type": "uint256"
        }
      ],
      "name": "Approval",
      "type": "event"
    },
    {
      "anonymous": false,
      "inputs": [
        {
          "indexed": true,
          "internalType": "address",
          "name": "owner",
          "type": "address"
        },
        {
          "indexed": true,
          "internalType": "address",
          "name": "operator",
          "type": "address"
        },
        {
          "indexed": false,
          "internalType": "bool",
          "name": "approved",
          "type": "bool"
        }
      ],
      "name": "ApprovalForAll",
      "type": "event"
    },
    {
      "anonymous": false,
      "inputs": [
        {
          "indexed": true,
          "internalType": "address",
          "name": "from",
          "type": "address"
        },
        {
          "indexed": true,
          "internalType": "address",
          "name": "to",
          "type": "address"
        },
        {
          "indexed": true,
          "internalType": "uint256",
          "name": "tokenId",
          "type": "uint256"
        }
      ],
      "name": "Transfer",
      "type": "event"
    },
    {
      "inputs": [
        {
          "internalType": "address",
          "name": "to",
          "type": "address"
        },
        {
          "internalType": "uint256",
          "name": "tokenId",
          "type": "uint256"
        }
      ],
      "name": "approve",
      "outputs": [],
      "stateMutability": "nonpayable",
      "type": "function"
    },
    {
      "inputs": [
        {
          "internalType": "address",
          "name": "owner",
          "type": "address"
        }
      ],
      "name": "balanceOf",
      "outputs": [
        {
          "internalType": "uint256",
          "name": "",
          "type": "uint256"
        }
      ],
      "stateMutability": "view",
      "type": "function"
    },
    {
      "inputs": [
        {
          "internalType": "string",
          "name": "_tokenURI",
          "type": "string"
        },
        {
          "internalType": "address",
          "name": "_addressToMint",
          "type": "address"
        }
      ],
      "name": "createToken",
      "outputs": [
        {
          "internalType": "uint256",
          "name": "",
          "type": "uint256"
        }
      ],
      "stateMutability": "nonpayable",
      "type": "function"
    },
    {
      "inputs": [
        {
          "internalType": "uint256",
          "name": "tokenId",
          "type": "uint256"
        }
      ],
      "name": "getApproved",
      "outputs": [
        {
          "internalType": "address",
          "name": "",
          "type": "address"
        }
      ],
      "stateMutability": "view",
      "type": "function"
    },
    {
      "inputs": [
        {
          "internalType": "address",
          "name": "owner",
          "type": "address"
        },
        {
          "internalType": "address",
          "name": "operator",
          "type": "address"
        }
      ],
      "name": "isApprovedForAll",
      "outputs": [
        {
          "internalType": "bool",
          "name": "",
          "type": "bool"
        }
      ],
      "stateMutability": "view",
      "type": "function"
    },
    {
      "inputs": [],
      "name": "name",
      "outputs": [
        {
          "internalType": "string",
          "name": "",
          "type": "string"
        }
      ],
      "stateMutability": "view",
      "type": "function"
    },
    {
      "inputs": [
        {
          "internalType": "uint256",
          "name": "tokenId",
          "type": "uint256"
        }
      ],
      "name": "ownerOf",
      "outputs": [
        {
          "internalType": "address",
          "name": "",
          "type": "address"
        }
      ],
      "stateMutability": "view",
      "type": "function"
    },
    {
      "inputs": [
        {
          "internalType": "address",
          "name": "from",
          "type": "address"
        },
        {
          "internalType": "address",
          "name": "to",
          "type": "address"
        },
        {
          "internalType": "uint256",
          "name": "tokenId",
          "type": "uint256"
        }
      ],
      "name": "safeTransferFrom",
      "outputs": [],
      "stateMutability": "nonpayable",
      "type": "function"
    },
    {
      "inputs": [
        {
          "internalType": "address",
          "name": "from",
          "type": "address"
        },
        {
          "internalType": "address",
          "name": "to",
          "type": "address"
        },
        {
          "internalType": "uint256",
          "name": "tokenId",
          "type": "uint256"
        },
        {
          "internalType": "bytes",
          "name": "_data",
          "type": "bytes"
        }
      ],
      "name": "safeTransferFrom",
      "outputs": [],
      "stateMutability": "nonpayable",
      "type": "function"
    },
    {
      "inputs": [
        {
          "internalType": "address",
          "name": "operator",
          "type": "address"
        },
        {
          "internalType": "bool",
          "name": "approved",
          "type": "bool"
        }
      ],
      "name": "setApprovalForAll",
      "outputs": [],
      "stateMutability": "nonpayable",
      "type": "function"
    },
    {
      "inputs": [
        {
          "internalType": "bytes4",
          "name": "interfaceId",
          "type": "bytes4"
        }
      ],
      "name": "supportsInterface",
      "outputs": [
        {
          "internalType": "bool",
          "name": "",
          "type": "bool"
        }
      ],
      "stateMutability": "view",
      "type": "function"
    },
    {
      "inputs": [],
      "name": "symbol",
      "outputs": [
        {
          "internalType": "string",
          "name": "",
          "type": "string"
        }
      ],
      "stateMutability": "view",
      "type": "function"
    },
    {
      "inputs": [
        {
          "internalType": "uint256",
          "name": "tokenId",
          "type": "uint256"
        }
      ],
      "name": "tokenURI",
      "outputs": [
        {
          "internalType": "string",
          "name": "",
          "type": "string"
        }
      ],
      "stateMutability": "view",
      "type": "function"
    },
    {
      "inputs": [
        {
          "internalType": "address",
          "name": "from",
          "type": "address"
        },
        {
          "internalType": "address",
          "name": "to",
          "type": "address"
        },
        {
          "internalType": "uint256",
          "name": "tokenId",
          "type": "uint256"
        }
      ],
      "name": "transferFrom",
      "outputs": [],
      "stateMutability": "nonpayable",
      "type": "function"
    }
  ],
  "bytecode": "0x60806040523480156200001157600080fd5b5060405162002fd538038062002fd58339818101604052810190620000379190620001e6565b6040518060400160405280600c81526020017f55544e465420546f6b656e7300000000000000000000000000000000000000008152506040518060400160405280600381526020017f55545400000000000000000000000000000000000000000000000000000000008152508160009080519060200190620000bb9291906200011f565b508060019080519060200190620000d49291906200011f565b50505080600860006101000a81548173ffffffffffffffffffffffffffffffffffffffff021916908373ffffffffffffffffffffffffffffffffffffffff16021790555050620002d0565b8280546200012d906200024c565b90600052602060002090601f0160209004810192826200015157600085556200019d565b82601f106200016c57805160ff19168380011785556200019d565b828001600101855582156200019d579182015b828111156200019c5782518255916020019190600101906200017f565b5b509050620001ac9190620001b0565b5090565b5b80821115620001cb576000816000905550600101620001b1565b5090565b600081519050620001e081620002b6565b92915050565b600060208284031215620001ff57620001fe620002b1565b5b60006200020f84828501620001cf565b91505092915050565b600062000225826200022c565b9050919050565b600073ffffffffffffffffffffffffffffffffffffffff82169050919050565b600060028204905060018216806200026557607f821691505b602082108114156200027c576200027b62000282565b5b50919050565b7f4e487b7100000000000000000000000000000000000000000000000000000000600052602260045260246000fd5b600080fd5b620002c18162000218565b8114620002cd57600080fd5b50565b612cf580620002e06000396000f3fe608060405234801561001057600080fd5b50600436106100ea5760003560e01c806370a082311161008c578063a22cb46511610066578063a22cb4651461026f578063b88d4fde1461028b578063c87b56dd146102a7578063e985e9c5146102d7576100ea565b806370a08231146101f157806395d89b4114610221578063a21193771461023f576100ea565b8063095ea7b3116100c8578063095ea7b31461016d57806323b872dd1461018957806342842e0e146101a55780636352211e146101c1576100ea565b806301ffc9a7146100ef57806306fdde031461011f578063081812fc1461013d575b600080fd5b61010960048036038101906101049190611c65565b610307565b60405161011691906120f6565b60405180910390f35b6101276103e9565b6040516101349190612111565b60405180910390f35b61015760048036038101906101529190611d1b565b61047b565b604051610164919061208f565b60405180910390f35b61018760048036038101906101829190611c25565b610500565b005b6101a3600480360381019061019e9190611b0f565b610618565b005b6101bf60048036038101906101ba9190611b0f565b610678565b005b6101db60048036038101906101d69190611d1b565b610698565b6040516101e8919061208f565b60405180910390f35b61020b60048036038101906102069190611aa2565b61074a565b6040516102189190612353565b60405180910390f35b610229610802565b6040516102369190612111565b60405180910390f35b61025960048036038101906102549190611cbf565b610894565b6040516102669190612353565b60405180910390f35b61028960048036038101906102849190611be5565b61095e565b005b6102a560048036038101906102a09190611b62565b610974565b005b6102c160048036038101906102bc9190611d1b565b6109d6565b6040516102ce9190612111565b60405180910390f35b6102f160048036038101906102ec9190611acf565b610b28565b6040516102fe91906120f6565b60405180910390f35b60007f80ac58cd000000000000000000000000000000000000000000000000000000007bffffffffffffffffffffffffffffffffffffffffffffffffffffffff1916827bffffffffffffffffffffffffffffffffffffffffffffffffffffffff191614806103d257507f5b5e139f000000000000000000000000000000000000000000000000000000007bffffffffffffffffffffffffffffffffffffffffffffffffffffffff1916827bffffffffffffffffffffffffffffffffffffffffffffffffffffffff1916145b806103e257506103e182610bbc565b5b9050919050565b6060600080546103f8906125a9565b80601f0160208091040260200160405190810160405280929190818152602001828054610424906125a9565b80156104715780601f1061044657610100808354040283529160200191610471565b820191906000526020600020905b81548152906001019060200180831161045457829003601f168201915b5050505050905090565b600061048682610c26565b6104c5576040517f08c379a00000000000000000000000000000000000000000000000000000000081526004016104bc906122d3565b60405180910390fd5b6004600083815260200190815260200160002060009054906101000a900473ffffffffffffffffffffffffffffffffffffffff169050919050565b600061050b82610698565b90508073ffffffffffffffffffffffffffffffffffffffff168373ffffffffffffffffffffffffffffffffffffffff16141561057c576040517f08c379a000000000000000000000000000000000000000000000000000000000815260040161057390612313565b60405180910390fd5b8073ffffffffffffffffffffffffffffffffffffffff1661059b610c92565b73ffffffffffffffffffffffffffffffffffffffff1614806105ca57506105c9816105c4610c92565b610b28565b5b610609576040517f08c379a000000000000000000000000000000000000000000000000000000000815260040161060090612213565b60405180910390fd5b6106138383610c9a565b505050565b610629610623610c92565b82610d53565b610668576040517f08c379a000000000000000000000000000000000000000000000000000000000815260040161065f90612333565b60405180910390fd5b610673838383610e31565b505050565b61069383838360405180602001604052806000815250610974565b505050565b6000806002600084815260200190815260200160002060009054906101000a900473ffffffffffffffffffffffffffffffffffffffff169050600073ffffffffffffffffffffffffffffffffffffffff168173ffffffffffffffffffffffffffffffffffffffff161415610741576040517f08c379a000000000000000000000000000000000000000000000000000000000815260040161073890612253565b60405180910390fd5b80915050919050565b60008073ffffffffffffffffffffffffffffffffffffffff168273ffffffffffffffffffffffffffffffffffffffff1614156107bb576040517f08c379a00000000000000000000000000000000000000000000000000000000081526004016107b290612233565b60405180910390fd5b600360008373ffffffffffffffffffffffffffffffffffffffff1673ffffffffffffffffffffffffffffffffffffffff168152602001908152602001600020549050919050565b606060018054610811906125a9565b80601f016020809104026020016040519081016040528092919081815260200182805461083d906125a9565b801561088a5780601f1061085f5761010080835404028352916020019161088a565b820191906000526020600020905b81548152906001019060200180831161086d57829003601f168201915b5050505050905090565b600033600860009054906101000a900473ffffffffffffffffffffffffffffffffffffffff1673ffffffffffffffffffffffffffffffffffffffff168173ffffffffffffffffffffffffffffffffffffffff1614610927576040517f08c379a000000000000000000000000000000000000000000000000000000000815260040161091e90612133565b60405180910390fd5b6109316007611098565b600061093d60076110ae565b905061094984826110bc565b6109538186611296565b809250505092915050565b610970610969610c92565b838361130a565b5050565b61098561097f610c92565b83610d53565b6109c4576040517f08c379a00000000000000000000000000000000000000000000000000000000081526004016109bb90612333565b60405180910390fd5b6109d084848484611477565b50505050565b60606109e182610c26565b610a20576040517f08c379a0000000000000000000000000000000000000000000000000000000008152600401610a17906122b3565b60405180910390fd5b6000600660008481526020019081526020016000208054610a40906125a9565b80601f0160208091040260200160405190810160405280929190818152602001828054610a6c906125a9565b8015610ab95780601f10610a8e57610100808354040283529160200191610ab9565b820191906000526020600020905b815481529060010190602001808311610a9c57829003601f168201915b505050505090506000610aca6114d3565b9050600081511415610ae0578192505050610b23565b600082511115610b15578082604051602001610afd92919061206b565b60405160208183030381529060405292505050610b23565b610b1e846114ea565b925050505b919050565b6000600560008473ffffffffffffffffffffffffffffffffffffffff1673ffffffffffffffffffffffffffffffffffffffff16815260200190815260200160002060008373ffffffffffffffffffffffffffffffffffffffff1673ffffffffffffffffffffffffffffffffffffffff16815260200190815260200160002060009054906101000a900460ff16905092915050565b60007f01ffc9a7000000000000000000000000000000000000000000000000000000007bffffffffffffffffffffffffffffffffffffffffffffffffffffffff1916827bffffffffffffffffffffffffffffffffffffffffffffffffffffffff1916149050919050565b60008073ffffffffffffffffffffffffffffffffffffffff166002600084815260200190815260200160002060009054906101000a900473ffffffffffffffffffffffffffffffffffffffff1673ffffffffffffffffffffffffffffffffffffffff1614159050919050565b600033905090565b816004600083815260200190815260200160002060006101000a81548173ffffffffffffffffffffffffffffffffffffffff021916908373ffffffffffffffffffffffffffffffffffffffff160217905550808273ffffffffffffffffffffffffffffffffffffffff16610d0d83610698565b73ffffffffffffffffffffffffffffffffffffffff167f8c5be1e5ebec7d5bd14f71427d1e84f3dd0314c0f7b2291e5b200ac8c7c3b92560405160405180910390a45050565b6000610d5e82610c26565b610d9d576040517f08c379a0000000000000000000000000000000000000000000000000000000008152600401610d94906121f3565b60405180910390fd5b6000610da883610698565b90508073ffffffffffffffffffffffffffffffffffffffff168473ffffffffffffffffffffffffffffffffffffffff161480610dea5750610de98185610b28565b5b80610e2857508373ffffffffffffffffffffffffffffffffffffffff16610e108461047b565b73ffffffffffffffffffffffffffffffffffffffff16145b91505092915050565b8273ffffffffffffffffffffffffffffffffffffffff16610e5182610698565b73ffffffffffffffffffffffffffffffffffffffff1614610ea7576040517f08c379a0000000000000000000000000000000000000000000000000000000008152600401610e9e90612173565b60405180910390fd5b600073ffffffffffffffffffffffffffffffffffffffff168273ffffffffffffffffffffffffffffffffffffffff161415610f17576040517f08c379a0000000000000000000000000000000000000000000000000000000008152600401610f0e906121b3565b60405180910390fd5b610f22838383611591565b610f2d600082610c9a565b6001600360008573ffffffffffffffffffffffffffffffffffffffff1673ffffffffffffffffffffffffffffffffffffffff1681526020019081526020016000206000828254610f7d91906124bf565b925050819055506001600360008473ffffffffffffffffffffffffffffffffffffffff1673ffffffffffffffffffffffffffffffffffffffff1681526020019081526020016000206000828254610fd49190612438565b92505081905550816002600083815260200190815260200160002060006101000a81548173ffffffffffffffffffffffffffffffffffffffff021916908373ffffffffffffffffffffffffffffffffffffffff160217905550808273ffffffffffffffffffffffffffffffffffffffff168473ffffffffffffffffffffffffffffffffffffffff167fddf252ad1be2c89b69c2b068fc378daa952ba7f163c4a11628f55a4df523b3ef60405160405180910390a4611093838383611596565b505050565b6001816000016000828254019250508190555050565b600081600001549050919050565b600073ffffffffffffffffffffffffffffffffffffffff168273ffffffffffffffffffffffffffffffffffffffff16141561112c576040517f08c379a000000000000000000000000000000000000000000000000000000000815260040161112390612293565b60405180910390fd5b61113581610c26565b15611175576040517f08c379a000000000000000000000000000000000000000000000000000000000815260040161116c90612193565b60405180910390fd5b61118160008383611591565b6001600360008473ffffffffffffffffffffffffffffffffffffffff1673ffffffffffffffffffffffffffffffffffffffff16815260200190815260200160002060008282546111d19190612438565b92505081905550816002600083815260200190815260200160002060006101000a81548173ffffffffffffffffffffffffffffffffffffffff021916908373ffffffffffffffffffffffffffffffffffffffff160217905550808273ffffffffffffffffffffffffffffffffffffffff16600073ffffffffffffffffffffffffffffffffffffffff167fddf252ad1be2c89b69c2b068fc378daa952ba7f163c4a11628f55a4df523b3ef60405160405180910390a461129260008383611596565b5050565b61129f82610c26565b6112de576040517f08c379a00000000000000000000000000000000000000000000000000000000081526004016112d590612273565b60405180910390fd5b806006600084815260200190815260200160002090805190602001906113059291906118b6565b505050565b8173ffffffffffffffffffffffffffffffffffffffff168373ffffffffffffffffffffffffffffffffffffffff161415611379576040517f08c379a0000000000000000000000000000000000000000000000000000000008152600401611370906121d3565b60405180910390fd5b80600560008573ffffffffffffffffffffffffffffffffffffffff1673ffffffffffffffffffffffffffffffffffffffff16815260200190815260200160002060008473ffffffffffffffffffffffffffffffffffffffff1673ffffffffffffffffffffffffffffffffffffffff16815260200190815260200160002060006101000a81548160ff0219169083151502179055508173ffffffffffffffffffffffffffffffffffffffff168373ffffffffffffffffffffffffffffffffffffffff167f17307eab39ab6107e8899845ad3d59bd9653f200f220920489ca2b5937696c318360405161146a91906120f6565b60405180910390a3505050565b611482848484610e31565b61148e8484848461159b565b6114cd576040517f08c379a00000000000000000000000000000000000000000000000000000000081526004016114c490612153565b60405180910390fd5b50505050565b606060405180602001604052806000815250905090565b60606114f582610c26565b611534576040517f08c379a000000000000000000000000000000000000000000000000000000000815260040161152b906122f3565b60405180910390fd5b600061153e6114d3565b9050600081511161155e5760405180602001604052806000815250611589565b8061156884611732565b60405160200161157992919061206b565b6040516020818303038152906040525b915050919050565b505050565b505050565b60006115bc8473ffffffffffffffffffffffffffffffffffffffff16611893565b15611725578373ffffffffffffffffffffffffffffffffffffffff1663150b7a026115e5610c92565b8786866040518563ffffffff1660e01b815260040161160794939291906120aa565b602060405180830381600087803b15801561162157600080fd5b505af192505050801561165257506040513d601f19601f8201168201806040525081019061164f9190611c92565b60015b6116d5573d8060008114611682576040519150601f19603f3d011682016040523d82523d6000602084013e611687565b606091505b506000815114156116cd576040517f08c379a00000000000000000000000000000000000000000000000000000000081526004016116c490612153565b60405180910390fd5b805181602001fd5b63150b7a0260e01b7bffffffffffffffffffffffffffffffffffffffffffffffffffffffff1916817bffffffffffffffffffffffffffffffffffffffffffffffffffffffff19161491505061172a565b600190505b949350505050565b6060600082141561177a576040518060400160405280600181526020017f3000000000000000000000000000000000000000000000000000000000000000815250905061188e565b600082905060005b600082146117ac5780806117959061260c565b915050600a826117a5919061248e565b9150611782565b60008167ffffffffffffffff8111156117c8576117c7612742565b5b6040519080825280601f01601f1916602001820160405280156117fa5781602001600182028036833780820191505090505b5090505b600085146118875760018261181391906124bf565b9150600a856118229190612655565b603061182e9190612438565b60f81b81838151811061184457611843612713565b5b60200101907effffffffffffffffffffffffffffffffffffffffffffffffffffffffffffff1916908160001a905350600a85611880919061248e565b94506117fe565b8093505050505b919050565b6000808273ffffffffffffffffffffffffffffffffffffffff163b119050919050565b8280546118c2906125a9565b90600052602060002090601f0160209004810192826118e4576000855561192b565b82601f106118fd57805160ff191683800117855561192b565b8280016001018555821561192b579182015b8281111561192a57825182559160200191906001019061190f565b5b509050611938919061193c565b5090565b5b8082111561195557600081600090555060010161193d565b5090565b600061196c61196784612393565b61236e565b90508281526020810184848401111561198857611987612776565b5b611993848285612567565b509392505050565b60006119ae6119a9846123c4565b61236e565b9050828152602081018484840111156119ca576119c9612776565b5b6119d5848285612567565b509392505050565b6000813590506119ec81612c63565b92915050565b600081359050611a0181612c7a565b92915050565b600081359050611a1681612c91565b92915050565b600081519050611a2b81612c91565b92915050565b600082601f830112611a4657611a45612771565b5b8135611a56848260208601611959565b91505092915050565b600082601f830112611a7457611a73612771565b5b8135611a8484826020860161199b565b91505092915050565b600081359050611a9c81612ca8565b92915050565b600060208284031215611ab857611ab7612780565b5b6000611ac6848285016119dd565b91505092915050565b60008060408385031215611ae657611ae5612780565b5b6000611af4858286016119dd565b9250506020611b05858286016119dd565b9150509250929050565b600080600060608486031215611b2857611b27612780565b5b6000611b36868287016119dd565b9350506020611b47868287016119dd565b9250506040611b5886828701611a8d565b9150509250925092565b60008060008060808587031215611b7c57611b7b612780565b5b6000611b8a878288016119dd565b9450506020611b9b878288016119dd565b9350506040611bac87828801611a8d565b925050606085013567ffffffffffffffff811115611bcd57611bcc61277b565b5b611bd987828801611a31565b91505092959194509250565b60008060408385031215611bfc57611bfb612780565b5b6000611c0a858286016119dd565b9250506020611c1b858286016119f2565b9150509250929050565b60008060408385031215611c3c57611c3b612780565b5b6000611c4a858286016119dd565b9250506020611c5b85828601611a8d565b9150509250929050565b600060208284031215611c7b57611c7a612780565b5b6000611c8984828501611a07565b91505092915050565b600060208284031215611ca857611ca7612780565b5b6000611cb684828501611a1c565b91505092915050565b60008060408385031215611cd657611cd5612780565b5b600083013567ffffffffffffffff811115611cf457611cf361277b565b5b611d0085828601611a5f565b9250506020611d11858286016119dd565b9150509250929050565b600060208284031215611d3157611d30612780565b5b6000611d3f84828501611a8d565b91505092915050565b611d51816124f3565b82525050565b611d6081612505565b82525050565b6000611d71826123f5565b611d7b818561240b565b9350611d8b818560208601612576565b611d9481612785565b840191505092915050565b6000611daa82612400565b611db4818561241c565b9350611dc4818560208601612576565b611dcd81612785565b840191505092915050565b6000611de382612400565b611ded818561242d565b9350611dfd818560208601612576565b80840191505092915050565b6000611e1660248361241c565b9150611e2182612796565b604082019050919050565b6000611e3960328361241c565b9150611e44826127e5565b604082019050919050565b6000611e5c60258361241c565b9150611e6782612834565b604082019050919050565b6000611e7f601c8361241c565b9150611e8a82612883565b602082019050919050565b6000611ea260248361241c565b9150611ead826128ac565b604082019050919050565b6000611ec560198361241c565b9150611ed0826128fb565b602082019050919050565b6000611ee8602c8361241c565b9150611ef382612924565b604082019050919050565b6000611f0b60388361241c565b9150611f1682612973565b604082019050919050565b6000611f2e602a8361241c565b9150611f39826129c2565b604082019050919050565b6000611f5160298361241c565b9150611f5c82612a11565b604082019050919050565b6000611f74602e8361241c565b9150611f7f82612a60565b604082019050919050565b6000611f9760208361241c565b9150611fa282612aaf565b602082019050919050565b6000611fba60318361241c565b9150611fc582612ad8565b604082019050919050565b6000611fdd602c8361241c565b9150611fe882612b27565b604082019050919050565b6000612000602f8361241c565b915061200b82612b76565b604082019050919050565b600061202360218361241c565b915061202e82612bc5565b604082019050919050565b600061204660318361241c565b915061205182612c14565b604082019050919050565b6120658161255d565b82525050565b60006120778285611dd8565b91506120838284611dd8565b91508190509392505050565b60006020820190506120a46000830184611d48565b92915050565b60006080820190506120bf6000830187611d48565b6120cc6020830186611d48565b6120d9604083018561205c565b81810360608301526120eb8184611d66565b905095945050505050565b600060208201905061210b6000830184611d57565b92915050565b6000602082019050818103600083015261212b8184611d9f565b905092915050565b6000602082019050818103600083015261214c81611e09565b9050919050565b6000602082019050818103600083015261216c81611e2c565b9050919050565b6000602082019050818103600083015261218c81611e4f565b9050919050565b600060208201905081810360008301526121ac81611e72565b9050919050565b600060208201905081810360008301526121cc81611e95565b9050919050565b600060208201905081810360008301526121ec81611eb8565b9050919050565b6000602082019050818103600083015261220c81611edb565b9050919050565b6000602082019050818103600083015261222c81611efe565b9050919050565b6000602082019050818103600083015261224c81611f21565b9050919050565b6000602082019050818103600083015261226c81611f44565b9050919050565b6000602082019050818103600083015261228c81611f67565b9050919050565b600060208201905081810360008301526122ac81611f8a565b9050919050565b600060208201905081810360008301526122cc81611fad565b9050919050565b600060208201905081810360008301526122ec81611fd0565b9050919050565b6000602082019050818103600083015261230c81611ff3565b9050919050565b6000602082019050818103600083015261232c81612016565b9050919050565b6000602082019050818103600083015261234c81612039565b9050919050565b6000602082019050612368600083018461205c565b92915050565b6000612378612389565b905061238482826125db565b919050565b6000604051905090565b600067ffffffffffffffff8211156123ae576123ad612742565b5b6123b782612785565b9050602081019050919050565b600067ffffffffffffffff8211156123df576123de612742565b5b6123e882612785565b9050602081019050919050565b600081519050919050565b600081519050919050565b600082825260208201905092915050565b600082825260208201905092915050565b600081905092915050565b60006124438261255d565b915061244e8361255d565b9250827fffffffffffffffffffffffffffffffffffffffffffffffffffffffffffffffff0382111561248357612482612686565b5b828201905092915050565b60006124998261255d565b91506124a48361255d565b9250826124b4576124b36126b5565b5b828204905092915050565b60006124ca8261255d565b91506124d58361255d565b9250828210156124e8576124e7612686565b5b828203905092915050565b60006124fe8261253d565b9050919050565b60008115159050919050565b60007fffffffff0000000000000000000000000000000000000000000000000000000082169050919050565b600073ffffffffffffffffffffffffffffffffffffffff82169050919050565b6000819050919050565b82818337600083830152505050565b60005b83811015612594578082015181840152602081019050612579565b838111156125a3576000848401525b50505050565b600060028204905060018216806125c157607f821691505b602082108114156125d5576125d46126e4565b5b50919050565b6125e482612785565b810181811067ffffffffffffffff8211171561260357612602612742565b5b80604052505050565b60006126178261255d565b91507fffffffffffffffffffffffffffffffffffffffffffffffffffffffffffffffff82141561264a57612649612686565b5b600182019050919050565b60006126608261255d565b915061266b8361255d565b92508261267b5761267a6126b5565b5b828206905092915050565b7f4e487b7100000000000000000000000000000000000000000000000000000000600052601160045260246000fd5b7f4e487b7100000000000000000000000000000000000000000000000000000000600052601260045260246000fd5b7f4e487b7100000000000000000000000000000000000000000000000000000000600052602260045260246000fd5b7f4e487b7100000000000000000000000000000000000000000000000000000000600052603260045260246000fd5b7f4e487b7100000000000000000000000000000000000000000000000000000000600052604160045260246000fd5b600080fd5b600080fd5b600080fd5b600080fd5b6000601f19601f8301169050919050565b7f4f6e6c79206d61726b65706c616365206f662074686973204e46542063616e2060008201527f6d696e7400000000000000000000000000000000000000000000000000000000602082015250565b7f4552433732313a207472616e7366657220746f206e6f6e20455243373231526560008201527f63656976657220696d706c656d656e7465720000000000000000000000000000602082015250565b7f4552433732313a207472616e736665722066726f6d20696e636f72726563742060008201527f6f776e6572000000000000000000000000000000000000000000000000000000602082015250565b7f4552433732313a20746f6b656e20616c7265616479206d696e74656400000000600082015250565b7f4552433732313a207472616e7366657220746f20746865207a65726f2061646460008201527f7265737300000000000000000000000000000000000000000000000000000000602082015250565b7f4552433732313a20617070726f766520746f2063616c6c657200000000000000600082015250565b7f4552433732313a206f70657261746f7220717565727920666f72206e6f6e657860008201527f697374656e7420746f6b656e0000000000000000000000000000000000000000602082015250565b7f4552433732313a20617070726f76652063616c6c6572206973206e6f74206f7760008201527f6e6572206e6f7220617070726f76656420666f7220616c6c0000000000000000602082015250565b7f4552433732313a2062616c616e636520717565727920666f7220746865207a6560008201527f726f206164647265737300000000000000000000000000000000000000000000602082015250565b7f4552433732313a206f776e657220717565727920666f72206e6f6e657869737460008201527f656e7420746f6b656e0000000000000000000000000000000000000000000000602082015250565b7f45524337323155524953746f726167653a2055524920736574206f66206e6f6e60008201527f6578697374656e7420746f6b656e000000000000000000000000000000000000602082015250565b7f4552433732313a206d696e7420746f20746865207a65726f2061646472657373600082015250565b7f45524337323155524953746f726167653a2055524920717565727920666f722060008201527f6e6f6e6578697374656e7420746f6b656e000000000000000000000000000000602082015250565b7f4552433732313a20617070726f76656420717565727920666f72206e6f6e657860008201527f697374656e7420746f6b656e0000000000000000000000000000000000000000602082015250565b7f4552433732314d657461646174613a2055524920717565727920666f72206e6f60008201527f6e6578697374656e7420746f6b656e0000000000000000000000000000000000602082015250565b7f4552433732313a20617070726f76616c20746f2063757272656e74206f776e6560008201527f7200000000000000000000000000000000000000000000000000000000000000602082015250565b7f4552433732313a207472616e736665722063616c6c6572206973206e6f74206f60008201527f776e6572206e6f7220617070726f766564000000000000000000000000000000602082015250565b612c6c816124f3565b8114612c7757600080fd5b50565b612c8381612505565b8114612c8e57600080fd5b50565b612c9a81612511565b8114612ca557600080fd5b50565b612cb18161255d565b8114612cbc57600080fd5b5056fea26469706673582212203c274bfdb2290b71d7cd131720220f52cdc7c46871b4e831b3b84134cd87655e64736f6c63430008070033",
  "linkReferences": {},
  "deployedLinkReferences": {}
}