{
  "_format": "hh-sol-artifact-1",
  "contractName": "NftMarketplace",
  "sourceName": "contracts/Marketplace.sol",
  "abi": [
    {
      "inputs": [
        {
          "internalType": "uint256",
          "name": "_initialMintCost",
          "type": "uint256"
        },
        {
          "internalType": "uint256",
          "name": "_initialSupply",
          "type": "uint256"
        },
        {
          "internalType": "uint256",
          "name": "_listingFee",
          "type": "uint256"
        },
        {
          "internalType": "string",
          "name": "_tokenName",
          "type": "string"
        },
        {
          "internalType": "string",
          "name": "_tokenSymbol",
          "type": "string"
        }
      ],
      "stateMutability": "nonpayable",
      "type": "constructor"
    },
    {
      "inputs": [
        {
          "internalType": "address",
          "name": "nftAddress",
          "type": "address"
        },
        {
          "internalType": "uint256",
          "name": "tokenId",
          "type": "uint256"
        }
      ],
      "name": "AlreadyListed",
      "type": "error"
    },
    {
      "inputs": [
        {
          "internalType": "uint256",
          "name": "price",
          "type": "uint256"
        }
      ],
      "name": "FeePriceNotMet",
      "type": "error"
    },
    {
      "inputs": [
        {
          "internalType": "uint256",
          "name": "price",
          "type": "uint256"
        }
      ],
      "name": "MintPriceNotMet",
      "type": "error"
    },
    {
      "inputs": [],
      "name": "NoProceeds",
      "type": "error"
    },
    {
      "inputs": [],
      "name": "NotApprovedForMarketplace",
      "type": "error"
    },
    {
      "inputs": [
        {
          "internalType": "address",
          "name": "nftAddress",
          "type": "address"
        },
        {
          "internalType": "uint256",
          "name": "tokenId",
          "type": "uint256"
        }
      ],
      "name": "NotListed",
      "type": "error"
    },
    {
      "inputs": [],
      "name": "NotOwner",
      "type": "error"
    },
    {
      "inputs": [],
      "name": "PriceMustBeAboveZero",
      "type": "error"
    },
    {
      "inputs": [
        {
          "internalType": "address",
          "name": "nftAddress",
          "type": "address"
        },
        {
          "internalType": "uint256",
          "name": "tokenId",
          "type": "uint256"
        },
        {
          "internalType": "uint256",
          "name": "price",
          "type": "uint256"
        }
      ],
      "name": "PriceNotMet",
      "type": "error"
    },
    {
      "anonymous": false,
      "inputs": [
        {
          "indexed": true,
          "internalType": "address",
          "name": "owner",
          "type": "address"
        },
        {
          "indexed": true,
          "internalType": "address",
          "name": "spender",
          "type": "address"
        },
        {
          "indexed": false,
          "internalType": "uint256",
          "name": "value",
          "type": "uint256"
        }
      ],
      "name": "Approval",
      "type": "event"
    },
    {
      "anonymous": false,
      "inputs": [
        {
          "indexed": true,
          "internalType": "address",
          "name": "buyer",
          "type": "address"
        },
        {
          "indexed": true,
          "internalType": "address",
          "name": "nftAddress",
          "type": "address"
        },
        {
          "indexed": true,
          "internalType": "uint256",
          "name": "tokenId",
          "type": "uint256"
        },
        {
          "indexed": false,
          "internalType": "uint256",
          "name": "price",
          "type": "uint256"
        }
      ],
      "name": "ItemBought",
      "type": "event"
    },
    {
      "anonymous": false,
      "inputs": [
        {
          "indexed": true,
          "internalType": "address",
          "name": "seller",
          "type": "address"
        },
        {
          "indexed": true,
          "internalType": "address",
          "name": "nftAddress",
          "type": "address"
        },
        {
          "indexed": true,
          "internalType": "uint256",
          "name": "tokenId",
          "type": "uint256"
        }
      ],
      "name": "ItemCanceled",
      "type": "event"
    },
    {
      "anonymous": false,
      "inputs": [
        {
          "indexed": true,
          "internalType": "address",
          "name": "seller",
          "type": "address"
        },
        {
          "indexed": true,
          "internalType": "address",
          "name": "nftAddress",
          "type": "address"
        },
        {
          "indexed": true,
          "internalType": "uint256",
          "name": "tokenId",
          "type": "uint256"
        },
        {
          "indexed": false,
          "internalType": "uint256",
          "name": "price",
          "type": "uint256"
        }
      ],
      "name": "ItemListed",
      "type": "event"
    },
    {
      "anonymous": false,
      "inputs": [
        {
          "indexed": true,
          "internalType": "address",
          "name": "previousOwner",
          "type": "address"
        },
        {
          "indexed": true,
          "internalType": "address",
          "name": "newOwner",
          "type": "address"
        }
      ],
      "name": "OwnershipTransferred",
      "type": "event"
    },
    {
      "anonymous": false,
      "inputs": [
        {
          "indexed": true,
          "internalType": "address",
          "name": "from",
          "type": "address"
        },
        {
          "indexed": true,
          "internalType": "address",
          "name": "to",
          "type": "address"
        },
        {
          "indexed": false,
          "internalType": "uint256",
          "name": "value",
          "type": "uint256"
        }
      ],
      "name": "Transfer",
      "type": "event"
    },
    {
      "inputs": [
        {
          "internalType": "address",
          "name": "owner",
          "type": "address"
        },
        {
          "internalType": "address",
          "name": "spender",
          "type": "address"
        }
      ],
      "name": "allowance",
      "outputs": [
        {
          "internalType": "uint256",
          "name": "",
          "type": "uint256"
        }
      ],
      "stateMutability": "view",
      "type": "function"
    },
    {
      "inputs": [
        {
          "internalType": "address",
          "name": "spender",
          "type": "address"
        },
        {
          "internalType": "uint256",
          "name": "amount",
          "type": "uint256"
        }
      ],
      "name": "approve",
      "outputs": [
        {
          "internalType": "bool",
          "name": "",
          "type": "bool"
        }
      ],
      "stateMutability": "nonpayable",
      "type": "function"
    },
    {
      "inputs": [
        {
          "internalType": "address",
          "name": "account",
          "type": "address"
        }
      ],
      "name": "balanceOf",
      "outputs": [
        {
          "internalType": "uint256",
          "name": "",
          "type": "uint256"
        }
      ],
      "stateMutability": "view",
      "type": "function"
    },
    {
      "inputs": [
        {
          "internalType": "address",
          "name": "nftAddress",
          "type": "address"
        },
        {
          "internalType": "uint256",
          "name": "tokenId",
          "type": "uint256"
        }
      ],
      "name": "buyItem",
      "outputs": [],
      "stateMutability": "payable",
      "type": "function"
    },
    {
      "inputs": [
        {
          "internalType": "address",
          "name": "nftAddress",
          "type": "address"
        },
        {
          "internalType": "uint256",
          "name": "tokenId",
          "type": "uint256"
        }
      ],
      "name": "cancelListing",
      "outputs": [],
      "stateMutability": "nonpayable",
      "type": "function"
    },
    {
      "inputs": [],
      "name": "decimals",
      "outputs": [
        {
          "internalType": "uint8",
          "name": "",
          "type": "uint8"
        }
      ],
      "stateMutability": "view",
      "type": "function"
    },
    {
      "inputs": [
        {
          "internalType": "address",
          "name": "spender",
          "type": "address"
        },
        {
          "internalType": "uint256",
          "name": "subtractedValue",
          "type": "uint256"
        }
      ],
      "name": "decreaseAllowance",
      "outputs": [
        {
          "internalType": "bool",
          "name": "",
          "type": "bool"
        }
      ],
      "stateMutability": "nonpayable",
      "type": "function"
    },
    {
      "inputs": [],
      "name": "getCurrentMintPrice",
      "outputs": [
        {
          "internalType": "uint256",
          "name": "",
          "type": "uint256"
        }
      ],
      "stateMutability": "view",
      "type": "function"
    },
    {
      "inputs": [
        {
          "internalType": "address",
          "name": "nftAddress",
          "type": "address"
        },
        {
          "internalType": "uint256",
          "name": "tokenId",
          "type": "uint256"
        }
      ],
      "name": "getListing",
      "outputs": [
        {
          "components": [
            {
              "internalType": "uint256",
              "name": "price",
              "type": "uint256"
            },
            {
              "internalType": "address",
              "name": "seller",
              "type": "address"
            }
          ],
          "internalType": "struct NftMarketplace.Listing",
          "name": "",
          "type": "tuple"
        }
      ],
      "stateMutability": "view",
      "type": "function"
    },
    {
      "inputs": [],
      "name": "getListingFee",
      "outputs": [
        {
          "internalType": "uint256",
          "name": "",
          "type": "uint256"
        }
      ],
      "stateMutability": "view",
      "type": "function"
    },
    {
      "inputs": [
        {
          "internalType": "address",
          "name": "seller",
          "type": "address"
        }
      ],
      "name": "getProceeds",
      "outputs": [
        {
          "internalType": "uint256",
          "name": "",
          "type": "uint256"
        }
      ],
      "stateMutability": "view",
      "type": "function"
    },
    {
      "inputs": [
        {
          "internalType": "address",
          "name": "spender",
          "type": "address"
        },
        {
          "internalType": "uint256",
          "name": "addedValue",
          "type": "uint256"
        }
      ],
      "name": "increaseAllowance",
      "outputs": [
        {
          "internalType": "bool",
          "name": "",
          "type": "bool"
        }
      ],
      "stateMutability": "nonpayable",
      "type": "function"
    },
    {
      "inputs": [],
      "name": "initialMintCost",
      "outputs": [
        {
          "internalType": "uint256",
          "name": "",
          "type": "uint256"
        }
      ],
      "stateMutability": "view",
      "type": "function"
    },
    {
      "inputs": [
        {
          "internalType": "address",
          "name": "nftAddress",
          "type": "address"
        },
        {
          "internalType": "uint256",
          "name": "tokenId",
          "type": "uint256"
        },
        {
          "internalType": "uint256",
          "name": "price",
          "type": "uint256"
        }
      ],
      "name": "listItem",
      "outputs": [],
      "stateMutability": "payable",
      "type": "function"
    },
    {
      "inputs": [],
      "name": "listingFee",
      "outputs": [
        {
          "internalType": "uint256",
          "name": "",
          "type": "uint256"
        }
      ],
      "stateMutability": "view",
      "type": "function"
    },
    {
      "inputs": [
        {
          "internalType": "string",
          "name": "_tokenURI",
          "type": "string"
        },
        {
          "internalType": "uint256",
          "name": "sentTokens",
          "type": "uint256"
        }
      ],
      "name": "mintNft",
      "outputs": [],
      "stateMutability": "nonpayable",
      "type": "function"
    },
    {
      "inputs": [],
      "name": "name",
      "outputs": [
        {
          "internalType": "string",
          "name": "",
          "type": "string"
        }
      ],
      "stateMutability": "view",
      "type": "function"
    },
    {
      "inputs": [],
      "name": "nativeNftAddress",
      "outputs": [
        {
          "internalType": "address",
          "name": "",
          "type": "address"
        }
      ],
      "stateMutability": "view",
      "type": "function"
    },
    {
      "inputs": [],
      "name": "owner",
      "outputs": [
        {
          "internalType": "address",
          "name": "",
          "type": "address"
        }
      ],
      "stateMutability": "view",
      "type": "function"
    },
    {
      "inputs": [],
      "name": "renounceOwnership",
      "outputs": [],
      "stateMutability": "nonpayable",
      "type": "function"
    },
    {
      "inputs": [
        {
          "internalType": "uint256",
          "name": "_listingFee",
          "type": "uint256"
        }
      ],
      "name": "setListingFee",
      "outputs": [],
      "stateMutability": "nonpayable",
      "type": "function"
    },
    {
      "inputs": [
        {
          "internalType": "address",
          "name": "_nftAddress",
          "type": "address"
        }
      ],
      "name": "setNftAddress",
      "outputs": [],
      "stateMutability": "nonpayable",
      "type": "function"
    },
    {
      "inputs": [],
      "name": "symbol",
      "outputs": [
        {
          "internalType": "string",
          "name": "",
          "type": "string"
        }
      ],
      "stateMutability": "view",
      "type": "function"
    },
    {
      "inputs": [],
      "name": "totalSupply",
      "outputs": [
        {
          "internalType": "uint256",
          "name": "",
          "type": "uint256"
        }
      ],
      "stateMutability": "view",
      "type": "function"
    },
    {
      "inputs": [
        {
          "internalType": "address",
          "name": "to",
          "type": "address"
        },
        {
          "internalType": "uint256",
          "name": "amount",
          "type": "uint256"
        }
      ],
      "name": "transfer",
      "outputs": [
        {
          "internalType": "bool",
          "name": "",
          "type": "bool"
        }
      ],
      "stateMutability": "nonpayable",
      "type": "function"
    },
    {
      "inputs": [
        {
          "internalType": "address",
          "name": "from",
          "type": "address"
        },
        {
          "internalType": "address",
          "name": "to",
          "type": "address"
        },
        {
          "internalType": "uint256",
          "name": "amount",
          "type": "uint256"
        }
      ],
      "name": "transferFrom",
      "outputs": [
        {
          "internalType": "bool",
          "name": "",
          "type": "bool"
        }
      ],
      "stateMutability": "nonpayable",
      "type": "function"
    },
    {
      "inputs": [
        {
          "internalType": "address",
          "name": "newOwner",
          "type": "address"
        }
      ],
      "name": "transferOwnership",
      "outputs": [],
      "stateMutability": "nonpayable",
      "type": "function"
    },
    {
      "inputs": [
        {
          "internalType": "address",
          "name": "nftAddress",
          "type": "address"
        },
        {
          "internalType": "uint256",
          "name": "tokenId",
          "type": "uint256"
        },
        {
          "internalType": "uint256",
          "name": "newPrice",
          "type": "uint256"
        }
      ],
      "name": "updateListing",
      "outputs": [],
      "stateMutability": "nonpayable",
      "type": "function"
    },
    {
      "inputs": [],
      "name": "withdrawProceeds",
      "outputs": [],
      "stateMutability": "nonpayable",
      "type": "function"
    }
  ],
  "bytecode": "0x60806040523480156200001157600080fd5b506040516200401738038062004017833981810160405281019062000037919062000457565b8181600160008190555081600490805190602001906200005992919062000312565b5080600590805190602001906200007292919062000312565b5050506200009562000089620000c060201b60201c565b620000c860201b60201c565b620000a733856200018e60201b60201c565b8460098190555082600a81905550505050505062000802565b600033905090565b6000600660009054906101000a900473ffffffffffffffffffffffffffffffffffffffff16905081600660006101000a81548173ffffffffffffffffffffffffffffffffffffffff021916908373ffffffffffffffffffffffffffffffffffffffff1602179055508173ffffffffffffffffffffffffffffffffffffffff168173ffffffffffffffffffffffffffffffffffffffff167f8be0079c531659141344cd1fd0a4f28419497f9722a3daafe3b4186f6b6457e060405160405180910390a35050565b600073ffffffffffffffffffffffffffffffffffffffff168273ffffffffffffffffffffffffffffffffffffffff16141562000201576040517f08c379a0000000000000000000000000000000000000000000000000000000008152600401620001f89062000555565b60405180910390fd5b62000215600083836200030860201b60201c565b806003600082825462000229919062000604565b9250508190555080600160008473ffffffffffffffffffffffffffffffffffffffff1673ffffffffffffffffffffffffffffffffffffffff168152602001908152602001600020600082825462000281919062000604565b925050819055508173ffffffffffffffffffffffffffffffffffffffff16600073ffffffffffffffffffffffffffffffffffffffff167fddf252ad1be2c89b69c2b068fc378daa952ba7f163c4a11628f55a4df523b3ef83604051620002e8919062000577565b60405180910390a362000304600083836200030d60201b60201c565b5050565b505050565b505050565b8280546200032090620006a1565b90600052602060002090601f01602090048101928262000344576000855562000390565b82601f106200035f57805160ff191683800117855562000390565b8280016001018555821562000390579182015b828111156200038f57825182559160200191906001019062000372565b5b5090506200039f9190620003a3565b5090565b5b80821115620003be576000816000905550600101620003a4565b5090565b6000620003d9620003d384620005bd565b62000594565b905082815260208101848484011115620003f857620003f76200079f565b5b620004058482856200066b565b509392505050565b600082601f8301126200042557620004246200079a565b5b815162000437848260208601620003c2565b91505092915050565b6000815190506200045181620007e8565b92915050565b600080600080600060a08688031215620004765762000475620007a9565b5b6000620004868882890162000440565b9550506020620004998882890162000440565b9450506040620004ac8882890162000440565b935050606086015167ffffffffffffffff811115620004d057620004cf620007a4565b5b620004de888289016200040d565b925050608086015167ffffffffffffffff811115620005025762000501620007a4565b5b62000510888289016200040d565b9150509295509295909350565b60006200052c601f83620005f3565b91506200053982620007bf565b602082019050919050565b6200054f8162000661565b82525050565b6000602082019050818103600083015262000570816200051d565b9050919050565b60006020820190506200058e600083018462000544565b92915050565b6000620005a0620005b3565b9050620005ae8282620006d7565b919050565b6000604051905090565b600067ffffffffffffffff821115620005db57620005da6200076b565b5b620005e682620007ae565b9050602081019050919050565b600082825260208201905092915050565b6000620006118262000661565b91506200061e8362000661565b9250827fffffffffffffffffffffffffffffffffffffffffffffffffffffffffffffffff038211156200065657620006556200070d565b5b828201905092915050565b6000819050919050565b60005b838110156200068b5780820151818401526020810190506200066e565b838111156200069b576000848401525b50505050565b60006002820490506001821680620006ba57607f821691505b60208210811415620006d157620006d06200073c565b5b50919050565b620006e282620007ae565b810181811067ffffffffffffffff821117156200070457620007036200076b565b5b80604052505050565b7f4e487b7100000000000000000000000000000000000000000000000000000000600052601160045260246000fd5b7f4e487b7100000000000000000000000000000000000000000000000000000000600052602260045260246000fd5b7f4e487b7100000000000000000000000000000000000000000000000000000000600052604160045260246000fd5b600080fd5b600080fd5b600080fd5b600080fd5b6000601f19601f8301169050919050565b7f45524332303a206d696e7420746f20746865207a65726f206164647265737300600082015250565b620007f38162000661565b8114620007ff57600080fd5b50565b61380580620008126000396000f3fe6080604052600436106101c25760003560e01c806388700d1c116100f7578063a9059cbb11610095578063dd62ed3e11610064578063dd62ed3e1461063c578063e82ded2114610679578063f2fde38b146106a4578063f772adf1146106cd576101c2565b8063a9059cbb14610580578063b2ddee06146105bd578063b8fe6abe146105e6578063dcd349b114610611576101c2565b80639038e693116100d15780639038e693146104e557806395d89b41146104fc5780639f37092a14610527578063a457c2d714610543576101c2565b806388700d1c1461046157806389bfd38f1461049e5780638da5cb5b146104ba576101c2565b80632c7e5ec111610164578063395093511161013e57806339509351146103a55780636a1b7ecc146103e257806370a082311461040d578063715018a61461044a576101c2565b80632c7e5ec11461031457806330cfeda91461033d578063313ce5671461037a576101c2565b80630b102d1a116101a05780630b102d1a1461025a578063131dbd091461028357806318160ddd146102ac57806323b872dd146102d7576101c2565b806306fdde03146101c757806308698d29146101f2578063095ea7b31461021d575b600080fd5b3480156101d357600080fd5b506101dc6106f6565b6040516101e99190612f0f565b60405180910390f35b3480156101fe57600080fd5b50610207610788565b6040516102149190612e19565b60405180910390f35b34801561022957600080fd5b50610244600480360381019061023f9190612a05565b6107ae565b6040516102519190612ef4565b60405180910390f35b34801561026657600080fd5b50610281600480360381019061027c9190612918565b6107d1565b005b34801561028f57600080fd5b506102aa60048036038101906102a59190612b21565b610891565b005b3480156102b857600080fd5b506102c1610917565b6040516102ce91906130fc565b60405180910390f35b3480156102e357600080fd5b506102fe60048036038101906102f991906129b2565b610921565b60405161030b9190612ef4565b60405180910390f35b34801561032057600080fd5b5061033b60048036038101906103369190612ac5565b610950565b005b34801561034957600080fd5b50610364600480360381019061035f9190612918565b610af0565b60405161037191906130fc565b60405180910390f35b34801561038657600080fd5b5061038f610b39565b60405161039c9190613117565b60405180910390f35b3480156103b157600080fd5b506103cc60048036038101906103c79190612a05565b610b42565b6040516103d99190612ef4565b60405180910390f35b3480156103ee57600080fd5b506103f7610b79565b60405161040491906130fc565b60405180910390f35b34801561041957600080fd5b50610434600480360381019061042f9190612918565b610b7f565b60405161044191906130fc565b60405180910390f35b34801561045657600080fd5b5061045f610bc8565b005b34801561046d57600080fd5b5061048860048036038101906104839190612a05565b610c50565b60405161049591906130e1565b60405180910390f35b6104b860048036038101906104b39190612a45565b610d1b565b005b3480156104c657600080fd5b506104cf61131a565b6040516104dc9190612e19565b60405180910390f35b3480156104f157600080fd5b506104fa611344565b005b34801561050857600080fd5b506105116114b7565b60405161051e9190612f0f565b60405180910390f35b610541600480360381019061053c9190612a05565b611549565b005b34801561054f57600080fd5b5061056a60048036038101906105659190612a05565b61197c565b6040516105779190612ef4565b60405180910390f35b34801561058c57600080fd5b506105a760048036038101906105a29190612a05565b6119f3565b6040516105b49190612ef4565b60405180910390f35b3480156105c957600080fd5b506105e460048036038101906105df9190612a05565b611a16565b005b3480156105f257600080fd5b506105fb611d05565b60405161060891906130fc565b60405180910390f35b34801561061d57600080fd5b50610626611d0f565b60405161063391906130fc565b60405180910390f35b34801561064857600080fd5b50610663600480360381019061065e9190612972565b611d15565b60405161067091906130fc565b60405180910390f35b34801561068557600080fd5b5061068e611d9c565b60405161069b91906130fc565b60405180910390f35b3480156106b057600080fd5b506106cb60048036038101906106c69190612918565b611dde565b005b3480156106d957600080fd5b506106f460048036038101906106ef9190612a45565b611ed6565b005b60606004805461070590613327565b80601f016020809104026020016040519081016040528092919081815260200182805461073190613327565b801561077e5780601f106107535761010080835404028352916020019161077e565b820191906000526020600020905b81548152906001019060200180831161076157829003601f168201915b5050505050905090565b600860009054906101000a900473ffffffffffffffffffffffffffffffffffffffff1681565b6000806107b9612238565b90506107c6818585612240565b600191505092915050565b6107d9612238565b73ffffffffffffffffffffffffffffffffffffffff166107f761131a565b73ffffffffffffffffffffffffffffffffffffffff161461084d576040517f08c379a000000000000000000000000000000000000000000000000000000000815260040161084490613041565b60405180910390fd5b80600860006101000a81548173ffffffffffffffffffffffffffffffffffffffff021916908373ffffffffffffffffffffffffffffffffffffffff16021790555050565b610899612238565b73ffffffffffffffffffffffffffffffffffffffff166108b761131a565b73ffffffffffffffffffffffffffffffffffffffff161461090d576040517f08c379a000000000000000000000000000000000000000000000000000000000815260040161090490613041565b60405180910390fd5b80600a8190555050565b6000600354905090565b60008061092c612238565b905061093985828561240b565b610944858585612497565b60019150509392505050565b600061095a611d9c565b9050808210156109a157806040517f801e4d5900000000000000000000000000000000000000000000000000000000815260040161099891906130fc565b60405180910390fd5b3073ffffffffffffffffffffffffffffffffffffffff166323b872dd3330856040518463ffffffff1660e01b81526004016109de93929190612e5d565b602060405180830381600087803b1580156109f857600080fd5b505af1158015610a0c573d6000803e3d6000fd5b505050506040513d601f19601f82011682018060405250810190610a309190612a98565b50600860009054906101000a900473ffffffffffffffffffffffffffffffffffffffff1673ffffffffffffffffffffffffffffffffffffffff1663a211937784336040518363ffffffff1660e01b8152600401610a8e929190612f31565b602060405180830381600087803b158015610aa857600080fd5b505af1158015610abc573d6000803e3d6000fd5b505050506040513d601f19601f82011682018060405250810190610ae09190612b4e565b50610aeb600761271b565b505050565b6000600c60008373ffffffffffffffffffffffffffffffffffffffff1673ffffffffffffffffffffffffffffffffffffffff168152602001908152602001600020549050919050565b60006012905090565b600080610b4d612238565b9050610b6e818585610b5f8589611d15565b610b6991906131af565b612240565b600191505092915050565b600a5481565b6000600160008373ffffffffffffffffffffffffffffffffffffffff1673ffffffffffffffffffffffffffffffffffffffff168152602001908152602001600020549050919050565b610bd0612238565b73ffffffffffffffffffffffffffffffffffffffff16610bee61131a565b73ffffffffffffffffffffffffffffffffffffffff1614610c44576040517f08c379a0000000000000000000000000000000000000000000000000000000008152600401610c3b90613041565b60405180910390fd5b610c4e6000612731565b565b610c5861280f565b600b60008473ffffffffffffffffffffffffffffffffffffffff1673ffffffffffffffffffffffffffffffffffffffff1681526020019081526020016000206000838152602001908152602001600020604051806040016040529081600082015481526020016001820160009054906101000a900473ffffffffffffffffffffffffffffffffffffffff1673ffffffffffffffffffffffffffffffffffffffff1673ffffffffffffffffffffffffffffffffffffffff1681525050905092915050565b8282336000600b60008573ffffffffffffffffffffffffffffffffffffffff1673ffffffffffffffffffffffffffffffffffffffff1681526020019081526020016000206000848152602001908152602001600020604051806040016040529081600082015481526020016001820160009054906101000a900473ffffffffffffffffffffffffffffffffffffffff1673ffffffffffffffffffffffffffffffffffffffff1673ffffffffffffffffffffffffffffffffffffffff16815250509050600081600001511115610e295783836040517f4a5568d5000000000000000000000000000000000000000000000000000000008152600401610e20929190612e94565b60405180910390fd5b868633600083905060008173ffffffffffffffffffffffffffffffffffffffff16636352211e856040518263ffffffff1660e01b8152600401610e6c91906130fc565b60206040518083038186803b158015610e8457600080fd5b505afa158015610e98573d6000803e3d6000fd5b505050506040513d601f19601f82011682018060405250810190610ebc9190612945565b90508073ffffffffffffffffffffffffffffffffffffffff168373ffffffffffffffffffffffffffffffffffffffff1614610f23576040517f30cd747100000000000000000000000000000000000000000000000000000000815260040160405180910390fd5b600860009054906101000a900473ffffffffffffffffffffffffffffffffffffffff1673ffffffffffffffffffffffffffffffffffffffff168c73ffffffffffffffffffffffffffffffffffffffff161415610fc15760003414610fbc576040517f08c379a0000000000000000000000000000000000000000000000000000000008152600401610fb390613021565b60405180910390fd5b61100b565b600a5434101561100a57600a546040517f21f7e79500000000000000000000000000000000000000000000000000000000815260040161100191906130fc565b60405180910390fd5b5b60008a11611045576040517fe1abbfc500000000000000000000000000000000000000000000000000000000815260040160405180910390fd5b60008c90503073ffffffffffffffffffffffffffffffffffffffff168173ffffffffffffffffffffffffffffffffffffffff1663081812fc8e6040518263ffffffff1660e01b815260040161109a91906130fc565b60206040518083038186803b1580156110b257600080fd5b505afa1580156110c6573d6000803e3d6000fd5b505050506040513d601f19601f820116820180604052508101906110ea9190612945565b73ffffffffffffffffffffffffffffffffffffffff16148061119a5750600115158173ffffffffffffffffffffffffffffffffffffffff1663e985e9c533306040518363ffffffff1660e01b8152600401611146929190612e34565b60206040518083038186803b15801561115e57600080fd5b505afa158015611172573d6000803e3d6000fd5b505050506040513d601f19601f820116820180604052508101906111969190612a98565b1515145b156112d95760405180604001604052808c81526020013373ffffffffffffffffffffffffffffffffffffffff16815250600b60008f73ffffffffffffffffffffffffffffffffffffffff1673ffffffffffffffffffffffffffffffffffffffff16815260200190815260200160002060008e81526020019081526020016000206000820151816000015560208201518160010160006101000a81548173ffffffffffffffffffffffffffffffffffffffff021916908373ffffffffffffffffffffffffffffffffffffffff1602179055509050508b8d73ffffffffffffffffffffffffffffffffffffffff163373ffffffffffffffffffffffffffffffffffffffff167fd547e933094f12a9159076970143ebe73234e64480317844b0dcb36117116de48e6040516112cc91906130fc565b60405180910390a461130b565b6040517f4be3a2c500000000000000000000000000000000000000000000000000000000815260040160405180910390fd5b50505050505050505050505050565b6000600660009054906101000a900473ffffffffffffffffffffffffffffffffffffffff16905090565b6000600c60003373ffffffffffffffffffffffffffffffffffffffff1673ffffffffffffffffffffffffffffffffffffffff168152602001908152602001600020549050600081116113c2576040517fc4d8fa8700000000000000000000000000000000000000000000000000000000815260040160405180910390fd5b6000600c60003373ffffffffffffffffffffffffffffffffffffffff1673ffffffffffffffffffffffffffffffffffffffff1681526020019081526020016000208190555060003373ffffffffffffffffffffffffffffffffffffffff168260405161142d90612e04565b60006040518083038185875af1925050503d806000811461146a576040519150601f19603f3d011682016040523d82523d6000602084013e61146f565b606091505b50509050806114b3576040517f08c379a00000000000000000000000000000000000000000000000000000000081526004016114aa90612fc1565b60405180910390fd5b5050565b6060600580546114c690613327565b80601f01602080910402602001604051908101604052809291908181526020018280546114f290613327565b801561153f5780601f106115145761010080835404028352916020019161153f565b820191906000526020600020905b81548152906001019060200180831161152257829003601f168201915b5050505050905090565b81816000600b60008473ffffffffffffffffffffffffffffffffffffffff1673ffffffffffffffffffffffffffffffffffffffff1681526020019081526020016000206000838152602001908152602001600020604051806040016040529081600082015481526020016001820160009054906101000a900473ffffffffffffffffffffffffffffffffffffffff1673ffffffffffffffffffffffffffffffffffffffff1673ffffffffffffffffffffffffffffffffffffffff1681525050905060008160000151116116555782826040517f6831488c00000000000000000000000000000000000000000000000000000000815260040161164c929190612e94565b60405180910390fd5b6002600054141561169b576040517f08c379a0000000000000000000000000000000000000000000000000000000008152600401611692906130a1565b60405180910390fd5b60026000819055506000600b60008773ffffffffffffffffffffffffffffffffffffffff1673ffffffffffffffffffffffffffffffffffffffff1681526020019081526020016000206000868152602001908152602001600020604051806040016040529081600082015481526020016001820160009054906101000a900473ffffffffffffffffffffffffffffffffffffffff1673ffffffffffffffffffffffffffffffffffffffff1673ffffffffffffffffffffffffffffffffffffffff1681525050905080600001513410156117b357858582600001516040517f7c9345650000000000000000000000000000000000000000000000000000000081526004016117aa93929190612ebd565b60405180910390fd5b34600c6000836020015173ffffffffffffffffffffffffffffffffffffffff1673ffffffffffffffffffffffffffffffffffffffff168152602001908152602001600020600082825461180691906131af565b92505081905550600b60008773ffffffffffffffffffffffffffffffffffffffff1673ffffffffffffffffffffffffffffffffffffffff16815260200190815260200160002060008681526020019081526020016000206000808201600090556001820160006101000a81549073ffffffffffffffffffffffffffffffffffffffff021916905550508573ffffffffffffffffffffffffffffffffffffffff166342842e0e826020015133886040518463ffffffff1660e01b81526004016118d093929190612e5d565b600060405180830381600087803b1580156118ea57600080fd5b505af11580156118fe573d6000803e3d6000fd5b50505050848673ffffffffffffffffffffffffffffffffffffffff163373ffffffffffffffffffffffffffffffffffffffff167f263223b1dd81e51054a4e6f791d45a4a1ddb4aadcd93a2dfd892615c3fdac187846000015160405161196491906130fc565b60405180910390a45060016000819055505050505050565b600080611987612238565b905060006119958286611d15565b9050838110156119da576040517f08c379a00000000000000000000000000000000000000000000000000000000081526004016119d1906130c1565b60405180910390fd5b6119e78286868403612240565b60019250505092915050565b6000806119fe612238565b9050611a0b818585612497565b600191505092915050565b818133600083905060008173ffffffffffffffffffffffffffffffffffffffff16636352211e856040518263ffffffff1660e01b8152600401611a5991906130fc565b60206040518083038186803b158015611a7157600080fd5b505afa158015611a85573d6000803e3d6000fd5b505050506040513d601f19601f82011682018060405250810190611aa99190612945565b90508073ffffffffffffffffffffffffffffffffffffffff168373ffffffffffffffffffffffffffffffffffffffff1614611b10576040517f30cd747100000000000000000000000000000000000000000000000000000000815260040160405180910390fd5b86866000600b60008473ffffffffffffffffffffffffffffffffffffffff1673ffffffffffffffffffffffffffffffffffffffff1681526020019081526020016000206000838152602001908152602001600020604051806040016040529081600082015481526020016001820160009054906101000a900473ffffffffffffffffffffffffffffffffffffffff1673ffffffffffffffffffffffffffffffffffffffff1673ffffffffffffffffffffffffffffffffffffffff168152505090506000816000015111611c1c5782826040517f6831488c000000000000000000000000000000000000000000000000000000008152600401611c13929190612e94565b60405180910390fd5b600b60008b73ffffffffffffffffffffffffffffffffffffffff1673ffffffffffffffffffffffffffffffffffffffff16815260200190815260200160002060008a81526020019081526020016000206000808201600090556001820160006101000a81549073ffffffffffffffffffffffffffffffffffffffff02191690555050888a73ffffffffffffffffffffffffffffffffffffffff163373ffffffffffffffffffffffffffffffffffffffff167f9ba1a3cb55ce8d63d072a886f94d2a744f50cddf82128e897d0661f5ec62315860405160405180910390a450505050505050505050565b6000600a54905090565b60095481565b6000600260008473ffffffffffffffffffffffffffffffffffffffff1673ffffffffffffffffffffffffffffffffffffffff16815260200190815260200160002060008373ffffffffffffffffffffffffffffffffffffffff1673ffffffffffffffffffffffffffffffffffffffff16815260200190815260200160002054905092915050565b600080611da960076127f7565b905060006064600954611dbc9190613205565b90508181611dca9190613236565b600954611dd791906131af565b9250505090565b611de6612238565b73ffffffffffffffffffffffffffffffffffffffff16611e0461131a565b73ffffffffffffffffffffffffffffffffffffffff1614611e5a576040517f08c379a0000000000000000000000000000000000000000000000000000000008152600401611e5190613041565b60405180910390fd5b600073ffffffffffffffffffffffffffffffffffffffff168173ffffffffffffffffffffffffffffffffffffffff161415611eca576040517f08c379a0000000000000000000000000000000000000000000000000000000008152600401611ec190612f81565b60405180910390fd5b611ed381612731565b50565b82826000600b60008473ffffffffffffffffffffffffffffffffffffffff1673ffffffffffffffffffffffffffffffffffffffff1681526020019081526020016000206000838152602001908152602001600020604051806040016040529081600082015481526020016001820160009054906101000a900473ffffffffffffffffffffffffffffffffffffffff1673ffffffffffffffffffffffffffffffffffffffff1673ffffffffffffffffffffffffffffffffffffffff168152505090506000816000015111611fe25782826040517f6831488c000000000000000000000000000000000000000000000000000000008152600401611fd9929190612e94565b60405180910390fd5b60026000541415612028576040517f08c379a000000000000000000000000000000000000000000000000000000000815260040161201f906130a1565b60405180910390fd5b6002600081905550858533600083905060008173ffffffffffffffffffffffffffffffffffffffff16636352211e856040518263ffffffff1660e01b815260040161207391906130fc565b60206040518083038186803b15801561208b57600080fd5b505afa15801561209f573d6000803e3d6000fd5b505050506040513d601f19601f820116820180604052508101906120c39190612945565b90508073ffffffffffffffffffffffffffffffffffffffff168373ffffffffffffffffffffffffffffffffffffffff161461212a576040517f30cd747100000000000000000000000000000000000000000000000000000000815260040160405180910390fd5b6000891415612165576040517fe1abbfc500000000000000000000000000000000000000000000000000000000815260040160405180910390fd5b88600b60008d73ffffffffffffffffffffffffffffffffffffffff1673ffffffffffffffffffffffffffffffffffffffff16815260200190815260200160002060008c815260200190815260200160002060000181905550898b73ffffffffffffffffffffffffffffffffffffffff163373ffffffffffffffffffffffffffffffffffffffff167fd547e933094f12a9159076970143ebe73234e64480317844b0dcb36117116de48c60405161221b91906130fc565b60405180910390a450505050506001600081905550505050505050565b600033905090565b600073ffffffffffffffffffffffffffffffffffffffff168373ffffffffffffffffffffffffffffffffffffffff1614156122b0576040517f08c379a00000000000000000000000000000000000000000000000000000000081526004016122a790613081565b60405180910390fd5b600073ffffffffffffffffffffffffffffffffffffffff168273ffffffffffffffffffffffffffffffffffffffff161415612320576040517f08c379a000000000000000000000000000000000000000000000000000000000815260040161231790612fa1565b60405180910390fd5b80600260008573ffffffffffffffffffffffffffffffffffffffff1673ffffffffffffffffffffffffffffffffffffffff16815260200190815260200160002060008473ffffffffffffffffffffffffffffffffffffffff1673ffffffffffffffffffffffffffffffffffffffff168152602001908152602001600020819055508173ffffffffffffffffffffffffffffffffffffffff168373ffffffffffffffffffffffffffffffffffffffff167f8c5be1e5ebec7d5bd14f71427d1e84f3dd0314c0f7b2291e5b200ac8c7c3b925836040516123fe91906130fc565b60405180910390a3505050565b60006124178484611d15565b90507fffffffffffffffffffffffffffffffffffffffffffffffffffffffffffffffff81146124915781811015612483576040517f08c379a000000000000000000000000000000000000000000000000000000000815260040161247a90612fe1565b60405180910390fd5b6124908484848403612240565b5b50505050565b600073ffffffffffffffffffffffffffffffffffffffff168373ffffffffffffffffffffffffffffffffffffffff161415612507576040517f08c379a00000000000000000000000000000000000000000000000000000000081526004016124fe90613061565b60405180910390fd5b600073ffffffffffffffffffffffffffffffffffffffff168273ffffffffffffffffffffffffffffffffffffffff161415612577576040517f08c379a000000000000000000000000000000000000000000000000000000000815260040161256e90612f61565b60405180910390fd5b612582838383612805565b6000600160008573ffffffffffffffffffffffffffffffffffffffff1673ffffffffffffffffffffffffffffffffffffffff16815260200190815260200160002054905081811015612609576040517f08c379a000000000000000000000000000000000000000000000000000000000815260040161260090613001565b60405180910390fd5b818103600160008673ffffffffffffffffffffffffffffffffffffffff1673ffffffffffffffffffffffffffffffffffffffff1681526020019081526020016000208190555081600160008573ffffffffffffffffffffffffffffffffffffffff1673ffffffffffffffffffffffffffffffffffffffff168152602001908152602001600020600082825461269e91906131af565b925050819055508273ffffffffffffffffffffffffffffffffffffffff168473ffffffffffffffffffffffffffffffffffffffff167fddf252ad1be2c89b69c2b068fc378daa952ba7f163c4a11628f55a4df523b3ef8460405161270291906130fc565b60405180910390a361271584848461280a565b50505050565b6001816000016000828254019250508190555050565b6000600660009054906101000a900473ffffffffffffffffffffffffffffffffffffffff16905081600660006101000a81548173ffffffffffffffffffffffffffffffffffffffff021916908373ffffffffffffffffffffffffffffffffffffffff1602179055508173ffffffffffffffffffffffffffffffffffffffff168173ffffffffffffffffffffffffffffffffffffffff167f8be0079c531659141344cd1fd0a4f28419497f9722a3daafe3b4186f6b6457e060405160405180910390a35050565b600081600001549050919050565b505050565b505050565b604051806040016040528060008152602001600073ffffffffffffffffffffffffffffffffffffffff1681525090565b600061285261284d84613157565b613132565b90508281526020810184848401111561286e5761286d61344b565b5b6128798482856132e5565b509392505050565b6000813590506128908161378a565b92915050565b6000815190506128a58161378a565b92915050565b6000815190506128ba816137a1565b92915050565b600082601f8301126128d5576128d4613446565b5b81356128e584826020860161283f565b91505092915050565b6000813590506128fd816137b8565b92915050565b600081519050612912816137b8565b92915050565b60006020828403121561292e5761292d613455565b5b600061293c84828501612881565b91505092915050565b60006020828403121561295b5761295a613455565b5b600061296984828501612896565b91505092915050565b6000806040838503121561298957612988613455565b5b600061299785828601612881565b92505060206129a885828601612881565b9150509250929050565b6000806000606084860312156129cb576129ca613455565b5b60006129d986828701612881565b93505060206129ea86828701612881565b92505060406129fb868287016128ee565b9150509250925092565b60008060408385031215612a1c57612a1b613455565b5b6000612a2a85828601612881565b9250506020612a3b858286016128ee565b9150509250929050565b600080600060608486031215612a5e57612a5d613455565b5b6000612a6c86828701612881565b9350506020612a7d868287016128ee565b9250506040612a8e868287016128ee565b9150509250925092565b600060208284031215612aae57612aad613455565b5b6000612abc848285016128ab565b91505092915050565b60008060408385031215612adc57612adb613455565b5b600083013567ffffffffffffffff811115612afa57612af9613450565b5b612b06858286016128c0565b9250506020612b17858286016128ee565b9150509250929050565b600060208284031215612b3757612b36613455565b5b6000612b45848285016128ee565b91505092915050565b600060208284031215612b6457612b63613455565b5b6000612b7284828501612903565b91505092915050565b612b8481613290565b82525050565b612b9381613290565b82525050565b612ba2816132a2565b82525050565b6000612bb382613188565b612bbd818561319e565b9350612bcd8185602086016132f4565b612bd68161345a565b840191505092915050565b6000612bee60238361319e565b9150612bf98261346b565b604082019050919050565b6000612c1160268361319e565b9150612c1c826134ba565b604082019050919050565b6000612c3460228361319e565b9150612c3f82613509565b604082019050919050565b6000612c57600f8361319e565b9150612c6282613558565b602082019050919050565b6000612c7a601d8361319e565b9150612c8582613581565b602082019050919050565b6000612c9d60268361319e565b9150612ca8826135aa565b604082019050919050565b6000612cc0602e8361319e565b9150612ccb826135f9565b604082019050919050565b6000612ce360208361319e565b9150612cee82613648565b602082019050919050565b6000612d0660258361319e565b9150612d1182613671565b604082019050919050565b6000612d29600083613193565b9150612d34826136c0565b600082019050919050565b6000612d4c60248361319e565b9150612d57826136c3565b604082019050919050565b6000612d6f601f8361319e565b9150612d7a82613712565b602082019050919050565b6000612d9260258361319e565b9150612d9d8261373b565b604082019050919050565b604082016000820151612dbe6000850182612dd7565b506020820151612dd16020850182612b7b565b50505050565b612de0816132ce565b82525050565b612def816132ce565b82525050565b612dfe816132d8565b82525050565b6000612e0f82612d1c565b9150819050919050565b6000602082019050612e2e6000830184612b8a565b92915050565b6000604082019050612e496000830185612b8a565b612e566020830184612b8a565b9392505050565b6000606082019050612e726000830186612b8a565b612e7f6020830185612b8a565b612e8c6040830184612de6565b949350505050565b6000604082019050612ea96000830185612b8a565b612eb66020830184612de6565b9392505050565b6000606082019050612ed26000830186612b8a565b612edf6020830185612de6565b612eec6040830184612de6565b949350505050565b6000602082019050612f096000830184612b99565b92915050565b60006020820190508181036000830152612f298184612ba8565b905092915050565b60006040820190508181036000830152612f4b8185612ba8565b9050612f5a6020830184612b8a565b9392505050565b60006020820190508181036000830152612f7a81612be1565b9050919050565b60006020820190508181036000830152612f9a81612c04565b9050919050565b60006020820190508181036000830152612fba81612c27565b9050919050565b60006020820190508181036000830152612fda81612c4a565b9050919050565b60006020820190508181036000830152612ffa81612c6d565b9050919050565b6000602082019050818103600083015261301a81612c90565b9050919050565b6000602082019050818103600083015261303a81612cb3565b9050919050565b6000602082019050818103600083015261305a81612cd6565b9050919050565b6000602082019050818103600083015261307a81612cf9565b9050919050565b6000602082019050818103600083015261309a81612d3f565b9050919050565b600060208201905081810360008301526130ba81612d62565b9050919050565b600060208201905081810360008301526130da81612d85565b9050919050565b60006040820190506130f66000830184612da8565b92915050565b60006020820190506131116000830184612de6565b92915050565b600060208201905061312c6000830184612df5565b92915050565b600061313c61314d565b90506131488282613359565b919050565b6000604051905090565b600067ffffffffffffffff82111561317257613171613417565b5b61317b8261345a565b9050602081019050919050565b600081519050919050565b600081905092915050565b600082825260208201905092915050565b60006131ba826132ce565b91506131c5836132ce565b9250827fffffffffffffffffffffffffffffffffffffffffffffffffffffffffffffffff038211156131fa576131f961338a565b5b828201905092915050565b6000613210826132ce565b915061321b836132ce565b92508261322b5761322a6133b9565b5b828204905092915050565b6000613241826132ce565b915061324c836132ce565b9250817fffffffffffffffffffffffffffffffffffffffffffffffffffffffffffffffff04831182151516156132855761328461338a565b5b828202905092915050565b600061329b826132ae565b9050919050565b60008115159050919050565b600073ffffffffffffffffffffffffffffffffffffffff82169050919050565b6000819050919050565b600060ff82169050919050565b82818337600083830152505050565b60005b838110156133125780820151818401526020810190506132f7565b83811115613321576000848401525b50505050565b6000600282049050600182168061333f57607f821691505b60208210811415613353576133526133e8565b5b50919050565b6133628261345a565b810181811067ffffffffffffffff8211171561338157613380613417565b5b80604052505050565b7f4e487b7100000000000000000000000000000000000000000000000000000000600052601160045260246000fd5b7f4e487b7100000000000000000000000000000000000000000000000000000000600052601260045260246000fd5b7f4e487b7100000000000000000000000000000000000000000000000000000000600052602260045260246000fd5b7f4e487b7100000000000000000000000000000000000000000000000000000000600052604160045260246000fd5b600080fd5b600080fd5b600080fd5b600080fd5b6000601f19601f8301169050919050565b7f45524332303a207472616e7366657220746f20746865207a65726f206164647260008201527f6573730000000000000000000000000000000000000000000000000000000000602082015250565b7f4f776e61626c653a206e6577206f776e657220697320746865207a65726f206160008201527f6464726573730000000000000000000000000000000000000000000000000000602082015250565b7f45524332303a20617070726f766520746f20746865207a65726f20616464726560008201527f7373000000000000000000000000000000000000000000000000000000000000602082015250565b7f5472616e73666572206661696c65640000000000000000000000000000000000600082015250565b7f45524332303a20696e73756666696369656e7420616c6c6f77616e6365000000600082015250565b7f45524332303a207472616e7366657220616d6f756e742065786365656473206260008201527f616c616e63650000000000000000000000000000000000000000000000000000602082015250565b7f596f752073686f756c64206e6f742070617920666565207768656e206c69737460008201527f696e67206e6174697665204e4654000000000000000000000000000000000000602082015250565b7f4f776e61626c653a2063616c6c6572206973206e6f7420746865206f776e6572600082015250565b7f45524332303a207472616e736665722066726f6d20746865207a65726f20616460008201527f6472657373000000000000000000000000000000000000000000000000000000602082015250565b50565b7f45524332303a20617070726f76652066726f6d20746865207a65726f2061646460008201527f7265737300000000000000000000000000000000000000000000000000000000602082015250565b7f5265656e7472616e637947756172643a207265656e7472616e742063616c6c00600082015250565b7f45524332303a2064656372656173656420616c6c6f77616e63652062656c6f7760008201527f207a65726f000000000000000000000000000000000000000000000000000000602082015250565b61379381613290565b811461379e57600080fd5b50565b6137aa816132a2565b81146137b557600080fd5b50565b6137c1816132ce565b81146137cc57600080fd5b5056fea2646970667358221220eae8f837b6a8fe4035c5e9c675ece353c7764cbda6c751429651e8e4f6c2869264736f6c63430008070033",
  "linkReferences": {},
  "deployedLinkReferences": {}
}