{
  "_format": "hh-sol-artifact-1",
  "contractName": "SwapPool",
  "sourceName": "contracts/Swap.sol",
  "abi": [
    {
      "inputs": [
        {
          "internalType": "address",
          "name": "_token0",
          "type": "address"
        },
        {
          "internalType": "address",
          "name": "_token1",
          "type": "address"
        }
      ],
      "stateMutability": "nonpayable",
      "type": "constructor"
    },
    {
      "anonymous": false,
      "inputs": [
        {
          "indexed": true,
          "internalType": "address",
          "name": "owner",
          "type": "address"
        },
        {
          "indexed": true,
          "internalType": "address",
          "name": "spender",
          "type": "address"
        },
        {
          "indexed": false,
          "internalType": "uint256",
          "name": "value",
          "type": "uint256"
        }
      ],
      "name": "Approval",
      "type": "event"
    },
    {
      "anonymous": false,
      "inputs": [
        {
          "indexed": true,
          "internalType": "address",
          "name": "from",
          "type": "address"
        },
        {
          "indexed": true,
          "internalType": "address",
          "name": "to",
          "type": "address"
        },
        {
          "indexed": false,
          "internalType": "uint256",
          "name": "value",
          "type": "uint256"
        }
      ],
      "name": "Transfer",
      "type": "event"
    },
    {
      "inputs": [],
      "name": "INITIAL_SUPPLY",
      "outputs": [
        {
          "internalType": "uint256",
          "name": "",
          "type": "uint256"
        }
      ],
      "stateMutability": "view",
      "type": "function"
    },
    {
      "inputs": [
        {
          "internalType": "uint256",
          "name": "amount0",
          "type": "uint256"
        },
        {
          "internalType": "uint256",
          "name": "amount1",
          "type": "uint256"
        }
      ],
      "name": "add",
      "outputs": [],
      "stateMutability": "nonpayable",
      "type": "function"
    },
    {
      "inputs": [
        {
          "internalType": "address",
          "name": "owner",
          "type": "address"
        },
        {
          "internalType": "address",
          "name": "spender",
          "type": "address"
        }
      ],
      "name": "allowance",
      "outputs": [
        {
          "internalType": "uint256",
          "name": "",
          "type": "uint256"
        }
      ],
      "stateMutability": "view",
      "type": "function"
    },
    {
      "inputs": [
        {
          "internalType": "address",
          "name": "spender",
          "type": "address"
        },
        {
          "internalType": "uint256",
          "name": "amount",
          "type": "uint256"
        }
      ],
      "name": "approve",
      "outputs": [
        {
          "internalType": "bool",
          "name": "",
          "type": "bool"
        }
      ],
      "stateMutability": "nonpayable",
      "type": "function"
    },
    {
      "inputs": [
        {
          "internalType": "address",
          "name": "account",
          "type": "address"
        }
      ],
      "name": "balanceOf",
      "outputs": [
        {
          "internalType": "uint256",
          "name": "",
          "type": "uint256"
        }
      ],
      "stateMutability": "view",
      "type": "function"
    },
    {
      "inputs": [],
      "name": "decimals",
      "outputs": [
        {
          "internalType": "uint8",
          "name": "",
          "type": "uint8"
        }
      ],
      "stateMutability": "view",
      "type": "function"
    },
    {
      "inputs": [
        {
          "internalType": "address",
          "name": "spender",
          "type": "address"
        },
        {
          "internalType": "uint256",
          "name": "subtractedValue",
          "type": "uint256"
        }
      ],
      "name": "decreaseAllowance",
      "outputs": [
        {
          "internalType": "bool",
          "name": "",
          "type": "bool"
        }
      ],
      "stateMutability": "nonpayable",
      "type": "function"
    },
    {
      "inputs": [
        {
          "internalType": "uint256",
          "name": "amountIn",
          "type": "uint256"
        },
        {
          "internalType": "address",
          "name": "fromToken",
          "type": "address"
        }
      ],
      "name": "getAmountOut",
      "outputs": [
        {
          "internalType": "uint256",
          "name": "",
          "type": "uint256"
        },
        {
          "internalType": "uint256",
          "name": "",
          "type": "uint256"
        },
        {
          "internalType": "uint256",
          "name": "",
          "type": "uint256"
        }
      ],
      "stateMutability": "view",
      "type": "function"
    },
    {
      "inputs": [
        {
          "internalType": "address",
          "name": "spender",
          "type": "address"
        },
        {
          "internalType": "uint256",
          "name": "addedValue",
          "type": "uint256"
        }
      ],
      "name": "increaseAllowance",
      "outputs": [
        {
          "internalType": "bool",
          "name": "",
          "type": "bool"
        }
      ],
      "stateMutability": "nonpayable",
      "type": "function"
    },
    {
      "inputs": [],
      "name": "name",
      "outputs": [
        {
          "internalType": "string",
          "name": "",
          "type": "string"
        }
      ],
      "stateMutability": "view",
      "type": "function"
    },
    {
      "inputs": [
        {
          "internalType": "uint256",
          "name": "liquidity",
          "type": "uint256"
        }
      ],
      "name": "remove",
      "outputs": [],
      "stateMutability": "nonpayable",
      "type": "function"
    },
    {
      "inputs": [],
      "name": "reserve0",
      "outputs": [
        {
          "internalType": "uint256",
          "name": "",
          "type": "uint256"
        }
      ],
      "stateMutability": "view",
      "type": "function"
    },
    {
      "inputs": [],
      "name": "reserve1",
      "outputs": [
        {
          "internalType": "uint256",
          "name": "",
          "type": "uint256"
        }
      ],
      "stateMutability": "view",
      "type": "function"
    },
    {
      "inputs": [
        {
          "internalType": "uint256",
          "name": "amountIn",
          "type": "uint256"
        },
        {
          "internalType": "uint256",
          "name": "minAmountOut",
          "type": "uint256"
        },
        {
          "internalType": "address",
          "name": "fromToken",
          "type": "address"
        },
        {
          "internalType": "address",
          "name": "toToken",
          "type": "address"
        },
        {
          "internalType": "address",
          "name": "to",
          "type": "address"
        }
      ],
      "name": "swap",
      "outputs": [],
      "stateMutability": "nonpayable",
      "type": "function"
    },
    {
      "inputs": [],
      "name": "symbol",
      "outputs": [
        {
          "internalType": "string",
          "name": "",
          "type": "string"
        }
      ],
      "stateMutability": "view",
      "type": "function"
    },
    {
      "inputs": [],
      "name": "token0",
      "outputs": [
        {
          "internalType": "address",
          "name": "",
          "type": "address"
        }
      ],
      "stateMutability": "view",
      "type": "function"
    },
    {
      "inputs": [],
      "name": "token1",
      "outputs": [
        {
          "internalType": "address",
          "name": "",
          "type": "address"
        }
      ],
      "stateMutability": "view",
      "type": "function"
    },
    {
      "inputs": [],
      "name": "totalSupply",
      "outputs": [
        {
          "internalType": "uint256",
          "name": "",
          "type": "uint256"
        }
      ],
      "stateMutability": "view",
      "type": "function"
    },
    {
      "inputs": [
        {
          "internalType": "address",
          "name": "to",
          "type": "address"
        },
        {
          "internalType": "uint256",
          "name": "amount",
          "type": "uint256"
        }
      ],
      "name": "transfer",
      "outputs": [
        {
          "internalType": "bool",
          "name": "",
          "type": "bool"
        }
      ],
      "stateMutability": "nonpayable",
      "type": "function"
    },
    {
      "inputs": [
        {
          "internalType": "address",
          "name": "from",
          "type": "address"
        },
        {
          "internalType": "address",
          "name": "to",
          "type": "address"
        },
        {
          "internalType": "uint256",
          "name": "amount",
          "type": "uint256"
        }
      ],
      "name": "transferFrom",
      "outputs": [
        {
          "internalType": "bool",
          "name": "",
          "type": "bool"
        }
      ],
      "stateMutability": "nonpayable",
      "type": "function"
    }
  ],
  "bytecode": "0x60806040523480156200001157600080fd5b5060405162002b7d38038062002b7d833981810160405281019062000037919062000228565b6040518060400160405280600d81526020017f53776170506f6f6c546f6b656e000000000000000000000000000000000000008152506040518060400160405280600381526020017f53505400000000000000000000000000000000000000000000000000000000008152508160039080519060200190620000bb92919062000161565b508060049080519060200190620000d492919062000161565b50505081600560006101000a81548173ffffffffffffffffffffffffffffffffffffffff021916908373ffffffffffffffffffffffffffffffffffffffff16021790555080600660006101000a81548173ffffffffffffffffffffffffffffffffffffffff021916908373ffffffffffffffffffffffffffffffffffffffff160217905550505062000327565b8280546200016f90620002a3565b90600052602060002090601f016020900481019282620001935760008555620001df565b82601f10620001ae57805160ff1916838001178555620001df565b82800160010185558215620001df579182015b82811115620001de578251825591602001919060010190620001c1565b5b509050620001ee9190620001f2565b5090565b5b808211156200020d576000816000905550600101620001f3565b5090565b60008151905062000222816200030d565b92915050565b6000806040838503121562000242576200024162000308565b5b6000620002528582860162000211565b9250506020620002658582860162000211565b9150509250929050565b60006200027c8262000283565b9050919050565b600073ffffffffffffffffffffffffffffffffffffffff82169050919050565b60006002820490506001821680620002bc57607f821691505b60208210811415620002d357620002d2620002d9565b5b50919050565b7f4e487b7100000000000000000000000000000000000000000000000000000000600052602260045260246000fd5b600080fd5b62000318816200026f565b81146200032457600080fd5b50565b61284680620003376000396000f3fe608060405234801561001057600080fd5b506004361061012c5760003560e01c80635a76f25e116100ad578063a9059cbb11610071578063a9059cbb14610349578063d21220a714610379578063dd62ed3e14610397578063eab90da6146103c7578063f140a35a146103e35761012c565b80635a76f25e1461029157806370a08231146102af578063771602f7146102df57806395d89b41146102fb578063a457c2d7146103195761012c565b80632ff2e9dc116100f45780632ff2e9dc146101eb578063313ce567146102095780633950935114610227578063443cb4bc146102575780634cc82215146102755761012c565b806306fdde0314610131578063095ea7b31461014f5780630dfe16811461017f57806318160ddd1461019d57806323b872dd146101bb575b600080fd5b610139610415565b6040516101469190611f37565b60405180910390f35b61016960048036038101906101649190611a8a565b6104a7565b6040516101769190611f1c565b60405180910390f35b6101876104ca565b6040516101949190611ea1565b60405180910390f35b6101a56104f0565b6040516101b29190612139565b60405180910390f35b6101d560048036038101906101d09190611a37565b6104fa565b6040516101e29190611f1c565b60405180910390f35b6101f3610529565b6040516102009190612139565b60405180910390f35b610211610536565b60405161021e919061218b565b60405180910390f35b610241600480360381019061023c9190611a8a565b61053f565b60405161024e9190611f1c565b60405180910390f35b61025f610576565b60405161026c9190612139565b60405180910390f35b61028f600480360381019061028a9190611af7565b61057c565b005b6102996107ea565b6040516102a69190612139565b60405180910390f35b6102c960048036038101906102c491906119ca565b6107f0565b6040516102d69190612139565b60405180910390f35b6102f960048036038101906102f49190611b64565b610838565b005b610303610a73565b6040516103109190611f37565b60405180910390f35b610333600480360381019061032e9190611a8a565b610b05565b6040516103409190611f1c565b60405180910390f35b610363600480360381019061035e9190611a8a565b610b7c565b6040516103709190611f1c565b60405180910390f35b610381610b9f565b60405161038e9190611ea1565b60405180910390f35b6103b160048036038101906103ac91906119f7565b610bc5565b6040516103be9190612139565b60405180910390f35b6103e160048036038101906103dc9190611ba4565b610c4c565b005b6103fd60048036038101906103f89190611b24565b611068565b60405161040c93929190612154565b60405180910390f35b6060600380546104249061235f565b80601f01602080910402602001604051908101604052809291908181526020018280546104509061235f565b801561049d5780601f106104725761010080835404028352916020019161049d565b820191906000526020600020905b81548152906001019060200180831161048057829003601f168201915b5050505050905090565b6000806104b2611151565b90506104bf818585611159565b600191505092915050565b600560009054906101000a900473ffffffffffffffffffffffffffffffffffffffff1681565b6000600254905090565b600080610505611151565b9050610512858285611324565b61051d8585856113b0565b60019150509392505050565b683635c9adc5dea0000081565b60006012905090565b60008061054a611151565b905061056b81858561055c8589610bc5565b61056691906121c2565b611159565b600191505092915050565b60075481565b3073ffffffffffffffffffffffffffffffffffffffff166323b872dd3330846040518463ffffffff1660e01b81526004016105b993929190611ebc565b602060405180830381600087803b1580156105d357600080fd5b505af11580156105e7573d6000803e3d6000fd5b505050506040513d601f19601f8201168201806040525081019061060b9190611aca565b5060006106166104f0565b9050600081600754846106299190612249565b6106339190612218565b9050600082600854856106469190612249565b6106509190612218565b905061065c3085611631565b600560009054906101000a900473ffffffffffffffffffffffffffffffffffffffff1673ffffffffffffffffffffffffffffffffffffffff1663a9059cbb33846040518363ffffffff1660e01b81526004016106b9929190611ef3565b602060405180830381600087803b1580156106d357600080fd5b505af11580156106e7573d6000803e3d6000fd5b505050506040513d601f19601f8201168201806040525081019061070b9190611aca565b50600660009054906101000a900473ffffffffffffffffffffffffffffffffffffffff1673ffffffffffffffffffffffffffffffffffffffff1663a9059cbb33836040518363ffffffff1660e01b8152600401610769929190611ef3565b602060405180830381600087803b15801561078357600080fd5b505af1158015610797573d6000803e3d6000fd5b505050506040513d601f19601f820116820180604052508101906107bb9190611aca565b50816007546107ca91906122a3565b600781905550806008546107de91906122a3565b60088190555050505050565b60085481565b60008060008373ffffffffffffffffffffffffffffffffffffffff1673ffffffffffffffffffffffffffffffffffffffff168152602001908152602001600020549050919050565b600560009054906101000a900473ffffffffffffffffffffffffffffffffffffffff1673ffffffffffffffffffffffffffffffffffffffff166323b872dd3330856040518463ffffffff1660e01b815260040161089793929190611ebc565b602060405180830381600087803b1580156108b157600080fd5b505af11580156108c5573d6000803e3d6000fd5b505050506040513d601f19601f820116820180604052508101906108e99190611aca565b50600660009054906101000a900473ffffffffffffffffffffffffffffffffffffffff1673ffffffffffffffffffffffffffffffffffffffff166323b872dd3330846040518463ffffffff1660e01b815260040161094993929190611ebc565b602060405180830381600087803b15801561096357600080fd5b505af1158015610977573d6000803e3d6000fd5b505050506040513d601f19601f8201168201806040525081019061099b9190611aca565b506000826007546109ac91906121c2565b90506000826008546109be91906121c2565b905060006007541480156109d457506000600854145b156109f1576109ec33683635c9adc5dea00000611808565b610a5f565b60006109fb6104f0565b905060006007548285610a0e9190612249565b610a189190612218565b905060006008548385610a2b9190612249565b610a359190612218565b90506000610a438383611968565b9050610a5a338583610a5591906122a3565b611808565b505050505b816007819055508060088190555050505050565b606060048054610a829061235f565b80601f0160208091040260200160405190810160405280929190818152602001828054610aae9061235f565b8015610afb5780601f10610ad057610100808354040283529160200191610afb565b820191906000526020600020905b815481529060010190602001808311610ade57829003601f168201915b5050505050905090565b600080610b10611151565b90506000610b1e8286610bc5565b905083811015610b63576040517f08c379a0000000000000000000000000000000000000000000000000000000008152600401610b5a906120f9565b60405180910390fd5b610b708286868403611159565b60019250505092915050565b600080610b87611151565b9050610b948185856113b0565b600191505092915050565b600660009054906101000a900473ffffffffffffffffffffffffffffffffffffffff1681565b6000600160008473ffffffffffffffffffffffffffffffffffffffff1673ffffffffffffffffffffffffffffffffffffffff16815260200190815260200160002060008373ffffffffffffffffffffffffffffffffffffffff1673ffffffffffffffffffffffffffffffffffffffff16815260200190815260200160002054905092915050565b600085118015610c5c5750600084115b610c9b576040517f08c379a0000000000000000000000000000000000000000000000000000000008152600401610c9290611fb9565b60405180910390fd5b600560009054906101000a900473ffffffffffffffffffffffffffffffffffffffff1673ffffffffffffffffffffffffffffffffffffffff168373ffffffffffffffffffffffffffffffffffffffff161480610d445750600660009054906101000a900473ffffffffffffffffffffffffffffffffffffffff1673ffffffffffffffffffffffffffffffffffffffff168373ffffffffffffffffffffffffffffffffffffffff16145b610d83576040517f08c379a0000000000000000000000000000000000000000000000000000000008152600401610d7a90612039565b60405180910390fd5b600560009054906101000a900473ffffffffffffffffffffffffffffffffffffffff1673ffffffffffffffffffffffffffffffffffffffff168273ffffffffffffffffffffffffffffffffffffffff161480610e2c5750600660009054906101000a900473ffffffffffffffffffffffffffffffffffffffff1673ffffffffffffffffffffffffffffffffffffffff168273ffffffffffffffffffffffffffffffffffffffff16145b610e6b576040517f08c379a0000000000000000000000000000000000000000000000000000000008152600401610e6290612059565b60405180910390fd5b8173ffffffffffffffffffffffffffffffffffffffff168373ffffffffffffffffffffffffffffffffffffffff161415610eda576040517f08c379a0000000000000000000000000000000000000000000000000000000008152600401610ed190612019565b60405180910390fd5b6000806000610ee98887611068565b92509250925086831015610f32576040517f08c379a0000000000000000000000000000000000000000000000000000000008152600401610f29906120d9565b60405180910390fd5b8573ffffffffffffffffffffffffffffffffffffffff166323b872dd33308b6040518463ffffffff1660e01b8152600401610f6f93929190611ebc565b602060405180830381600087803b158015610f8957600080fd5b505af1158015610f9d573d6000803e3d6000fd5b505050506040513d601f19601f82011682018060405250810190610fc19190611aca565b508473ffffffffffffffffffffffffffffffffffffffff1663a9059cbb85856040518363ffffffff1660e01b8152600401610ffd929190611ef3565b602060405180830381600087803b15801561101757600080fd5b505af115801561102b573d6000803e3d6000fd5b505050506040513d601f19601f8201168201806040525081019061104f9190611aca565b5081600781905550806008819055505050505050505050565b60008060008060008060006008546007546110839190612249565b9050600560009054906101000a900473ffffffffffffffffffffffffffffffffffffffff1673ffffffffffffffffffffffffffffffffffffffff168873ffffffffffffffffffffffffffffffffffffffff16141561110e57600754896110e991906121c2565b935083816110f79190612218565b92508260085461110791906122a3565b915061113d565b6008548961111c91906121c2565b9250828161112a9190612218565b93508360075461113a91906122a3565b91505b818484965096509650505050509250925092565b600033905090565b600073ffffffffffffffffffffffffffffffffffffffff168373ffffffffffffffffffffffffffffffffffffffff1614156111c9576040517f08c379a00000000000000000000000000000000000000000000000000000000081526004016111c0906120b9565b60405180910390fd5b600073ffffffffffffffffffffffffffffffffffffffff168273ffffffffffffffffffffffffffffffffffffffff161415611239576040517f08c379a000000000000000000000000000000000000000000000000000000000815260040161123090611f99565b60405180910390fd5b80600160008573ffffffffffffffffffffffffffffffffffffffff1673ffffffffffffffffffffffffffffffffffffffff16815260200190815260200160002060008473ffffffffffffffffffffffffffffffffffffffff1673ffffffffffffffffffffffffffffffffffffffff168152602001908152602001600020819055508173ffffffffffffffffffffffffffffffffffffffff168373ffffffffffffffffffffffffffffffffffffffff167f8c5be1e5ebec7d5bd14f71427d1e84f3dd0314c0f7b2291e5b200ac8c7c3b925836040516113179190612139565b60405180910390a3505050565b60006113308484610bc5565b90507fffffffffffffffffffffffffffffffffffffffffffffffffffffffffffffffff81146113aa578181101561139c576040517f08c379a000000000000000000000000000000000000000000000000000000000815260040161139390611fd9565b60405180910390fd5b6113a98484848403611159565b5b50505050565b600073ffffffffffffffffffffffffffffffffffffffff168373ffffffffffffffffffffffffffffffffffffffff161415611420576040517f08c379a000000000000000000000000000000000000000000000000000000000815260040161141790612099565b60405180910390fd5b600073ffffffffffffffffffffffffffffffffffffffff168273ffffffffffffffffffffffffffffffffffffffff161415611490576040517f08c379a000000000000000000000000000000000000000000000000000000000815260040161148790611f59565b60405180910390fd5b61149b838383611981565b60008060008573ffffffffffffffffffffffffffffffffffffffff1673ffffffffffffffffffffffffffffffffffffffff16815260200190815260200160002054905081811015611521576040517f08c379a000000000000000000000000000000000000000000000000000000000815260040161151890611ff9565b60405180910390fd5b8181036000808673ffffffffffffffffffffffffffffffffffffffff1673ffffffffffffffffffffffffffffffffffffffff16815260200190815260200160002081905550816000808573ffffffffffffffffffffffffffffffffffffffff1673ffffffffffffffffffffffffffffffffffffffff16815260200190815260200160002060008282546115b491906121c2565b925050819055508273ffffffffffffffffffffffffffffffffffffffff168473ffffffffffffffffffffffffffffffffffffffff167fddf252ad1be2c89b69c2b068fc378daa952ba7f163c4a11628f55a4df523b3ef846040516116189190612139565b60405180910390a361162b848484611986565b50505050565b600073ffffffffffffffffffffffffffffffffffffffff168273ffffffffffffffffffffffffffffffffffffffff1614156116a1576040517f08c379a000000000000000000000000000000000000000000000000000000000815260040161169890612079565b60405180910390fd5b6116ad82600083611981565b60008060008473ffffffffffffffffffffffffffffffffffffffff1673ffffffffffffffffffffffffffffffffffffffff16815260200190815260200160002054905081811015611733576040517f08c379a000000000000000000000000000000000000000000000000000000000815260040161172a90611f79565b60405180910390fd5b8181036000808573ffffffffffffffffffffffffffffffffffffffff1673ffffffffffffffffffffffffffffffffffffffff16815260200190815260200160002081905550816002600082825461178a91906122a3565b92505081905550600073ffffffffffffffffffffffffffffffffffffffff168373ffffffffffffffffffffffffffffffffffffffff167fddf252ad1be2c89b69c2b068fc378daa952ba7f163c4a11628f55a4df523b3ef846040516117ef9190612139565b60405180910390a361180383600084611986565b505050565b600073ffffffffffffffffffffffffffffffffffffffff168273ffffffffffffffffffffffffffffffffffffffff161415611878576040517f08c379a000000000000000000000000000000000000000000000000000000000815260040161186f90612119565b60405180910390fd5b61188460008383611981565b806002600082825461189691906121c2565b92505081905550806000808473ffffffffffffffffffffffffffffffffffffffff1673ffffffffffffffffffffffffffffffffffffffff16815260200190815260200160002060008282546118eb91906121c2565b925050819055508173ffffffffffffffffffffffffffffffffffffffff16600073ffffffffffffffffffffffffffffffffffffffff167fddf252ad1be2c89b69c2b068fc378daa952ba7f163c4a11628f55a4df523b3ef836040516119509190612139565b60405180910390a361196460008383611986565b5050565b60008183106119775781611979565b825b905092915050565b505050565b505050565b60008135905061199a816127cb565b92915050565b6000815190506119af816127e2565b92915050565b6000813590506119c4816127f9565b92915050565b6000602082840312156119e0576119df61241e565b5b60006119ee8482850161198b565b91505092915050565b60008060408385031215611a0e57611a0d61241e565b5b6000611a1c8582860161198b565b9250506020611a2d8582860161198b565b9150509250929050565b600080600060608486031215611a5057611a4f61241e565b5b6000611a5e8682870161198b565b9350506020611a6f8682870161198b565b9250506040611a80868287016119b5565b9150509250925092565b60008060408385031215611aa157611aa061241e565b5b6000611aaf8582860161198b565b9250506020611ac0858286016119b5565b9150509250929050565b600060208284031215611ae057611adf61241e565b5b6000611aee848285016119a0565b91505092915050565b600060208284031215611b0d57611b0c61241e565b5b6000611b1b848285016119b5565b91505092915050565b60008060408385031215611b3b57611b3a61241e565b5b6000611b49858286016119b5565b9250506020611b5a8582860161198b565b9150509250929050565b60008060408385031215611b7b57611b7a61241e565b5b6000611b89858286016119b5565b9250506020611b9a858286016119b5565b9150509250929050565b600080600080600060a08688031215611bc057611bbf61241e565b5b6000611bce888289016119b5565b9550506020611bdf888289016119b5565b9450506040611bf08882890161198b565b9350506060611c018882890161198b565b9250506080611c128882890161198b565b9150509295509295909350565b611c28816122d7565b82525050565b611c37816122e9565b82525050565b6000611c48826121a6565b611c5281856121b1565b9350611c6281856020860161232c565b611c6b81612423565b840191505092915050565b6000611c836023836121b1565b9150611c8e82612434565b604082019050919050565b6000611ca66022836121b1565b9150611cb182612483565b604082019050919050565b6000611cc96022836121b1565b9150611cd4826124d2565b604082019050919050565b6000611cec600f836121b1565b9150611cf782612521565b602082019050919050565b6000611d0f601d836121b1565b9150611d1a8261254a565b602082019050919050565b6000611d326026836121b1565b9150611d3d82612573565b604082019050919050565b6000611d556011836121b1565b9150611d60826125c2565b602082019050919050565b6000611d786012836121b1565b9150611d83826125eb565b602082019050919050565b6000611d9b6010836121b1565b9150611da682612614565b602082019050919050565b6000611dbe6021836121b1565b9150611dc98261263d565b604082019050919050565b6000611de16025836121b1565b9150611dec8261268c565b604082019050919050565b6000611e046024836121b1565b9150611e0f826126db565b604082019050919050565b6000611e276011836121b1565b9150611e328261272a565b602082019050919050565b6000611e4a6025836121b1565b9150611e5582612753565b604082019050919050565b6000611e6d601f836121b1565b9150611e78826127a2565b602082019050919050565b611e8c81612315565b82525050565b611e9b8161231f565b82525050565b6000602082019050611eb66000830184611c1f565b92915050565b6000606082019050611ed16000830186611c1f565b611ede6020830185611c1f565b611eeb6040830184611e83565b949350505050565b6000604082019050611f086000830185611c1f565b611f156020830184611e83565b9392505050565b6000602082019050611f316000830184611c2e565b92915050565b60006020820190508181036000830152611f518184611c3d565b905092915050565b60006020820190508181036000830152611f7281611c76565b9050919050565b60006020820190508181036000830152611f9281611c99565b9050919050565b60006020820190508181036000830152611fb281611cbc565b9050919050565b60006020820190508181036000830152611fd281611cdf565b9050919050565b60006020820190508181036000830152611ff281611d02565b9050919050565b6000602082019050818103600083015261201281611d25565b9050919050565b6000602082019050818103600083015261203281611d48565b9050919050565b6000602082019050818103600083015261205281611d6b565b9050919050565b6000602082019050818103600083015261207281611d8e565b9050919050565b6000602082019050818103600083015261209281611db1565b9050919050565b600060208201905081810360008301526120b281611dd4565b9050919050565b600060208201905081810360008301526120d281611df7565b9050919050565b600060208201905081810360008301526120f281611e1a565b9050919050565b6000602082019050818103600083015261211281611e3d565b9050919050565b6000602082019050818103600083015261213281611e60565b9050919050565b600060208201905061214e6000830184611e83565b92915050565b60006060820190506121696000830186611e83565b6121766020830185611e83565b6121836040830184611e83565b949350505050565b60006020820190506121a06000830184611e92565b92915050565b600081519050919050565b600082825260208201905092915050565b60006121cd82612315565b91506121d883612315565b9250827fffffffffffffffffffffffffffffffffffffffffffffffffffffffffffffffff0382111561220d5761220c612391565b5b828201905092915050565b600061222382612315565b915061222e83612315565b92508261223e5761223d6123c0565b5b828204905092915050565b600061225482612315565b915061225f83612315565b9250817fffffffffffffffffffffffffffffffffffffffffffffffffffffffffffffffff048311821515161561229857612297612391565b5b828202905092915050565b60006122ae82612315565b91506122b983612315565b9250828210156122cc576122cb612391565b5b828203905092915050565b60006122e2826122f5565b9050919050565b60008115159050919050565b600073ffffffffffffffffffffffffffffffffffffffff82169050919050565b6000819050919050565b600060ff82169050919050565b60005b8381101561234a57808201518184015260208101905061232f565b83811115612359576000848401525b50505050565b6000600282049050600182168061237757607f821691505b6020821081141561238b5761238a6123ef565b5b50919050565b7f4e487b7100000000000000000000000000000000000000000000000000000000600052601160045260246000fd5b7f4e487b7100000000000000000000000000000000000000000000000000000000600052601260045260246000fd5b7f4e487b7100000000000000000000000000000000000000000000000000000000600052602260045260246000fd5b600080fd5b6000601f19601f8301169050919050565b7f45524332303a207472616e7366657220746f20746865207a65726f206164647260008201527f6573730000000000000000000000000000000000000000000000000000000000602082015250565b7f45524332303a206275726e20616d6f756e7420657863656564732062616c616e60008201527f6365000000000000000000000000000000000000000000000000000000000000602082015250565b7f45524332303a20617070726f766520746f20746865207a65726f20616464726560008201527f7373000000000000000000000000000000000000000000000000000000000000602082015250565b7f496e76616c696420616d6f756e74730000000000000000000000000000000000600082015250565b7f45524332303a20696e73756666696369656e7420616c6c6f77616e6365000000600082015250565b7f45524332303a207472616e7366657220616d6f756e742065786365656473206260008201527f616c616e63650000000000000000000000000000000000000000000000000000602082015250565b7f63616e2774206265207468652073616d65000000000000000000000000000000600082015250565b7f66726f6d20746f6b656e20696e76616c69640000000000000000000000000000600082015250565b7f746f20746f6b656e20696e76616c696400000000000000000000000000000000600082015250565b7f45524332303a206275726e2066726f6d20746865207a65726f2061646472657360008201527f7300000000000000000000000000000000000000000000000000000000000000602082015250565b7f45524332303a207472616e736665722066726f6d20746865207a65726f20616460008201527f6472657373000000000000000000000000000000000000000000000000000000602082015250565b7f45524332303a20617070726f76652066726f6d20746865207a65726f2061646460008201527f7265737300000000000000000000000000000000000000000000000000000000602082015250565b7f736c69707061676520746f6f2068696768000000000000000000000000000000600082015250565b7f45524332303a2064656372656173656420616c6c6f77616e63652062656c6f7760008201527f207a65726f000000000000000000000000000000000000000000000000000000602082015250565b7f45524332303a206d696e7420746f20746865207a65726f206164647265737300600082015250565b6127d4816122d7565b81146127df57600080fd5b50565b6127eb816122e9565b81146127f657600080fd5b50565b61280281612315565b811461280d57600080fd5b5056fea26469706673582212208bc9cba6422972efcd9ffbd38df3c22cdef424b619882ff2ffbebfcebccd5cce64736f6c63430008070033",
  "linkReferences": {},
  "deployedLinkReferences": {}
}